:100000000C94E8080C942F090C942F090C942F09D8
:100010000C942F090C942F090C942F090C942F0980
:100020000C942F090C942F090C94B2290C94842A57
:100030000C9422240C942F090C942F090C942F0952
:100040000C942F090C942F090C942F090C942F0950
:100050000C942F090C948A240C942F090C942F09CA
:100060000C942F090C942F090C942F090C942F0930
:100070000C942F090C942F090C942F090C942F0920
:100080000C942F090C942F090C942F090C942F0910
:100090000C942F090C942F090C942F090C942F0900
:1000A0000C942F090C942F090C942F09A80AAA0A62
:1000B000B50AAC0AAE0AB00AB20AB40AB70AB90A5B
:1000C000BB0AC60ABD0ABF0AC10AC30AC50AC80AD2
:1000D0000D1A0D1A3F1A3F1AC41BC41BC41BC41BA4
:1000E0007D1AC41B1E1B1E1B901B991BC41BBD1B12
:1000F0002B1B2B1B2B1B2B1B2B1B2B1B2B1B2B1BD0
:100100002B1B2B1B2B1B2B1B2B1B2B1B2B1B2B1BBF
:100110003C1B4A1B511B581B621B471C471C591C8C
:10012000591C501C591C591C591C471C471C551C58
:10013000591C591C551CF12A182B0A2C182B0A2C57
:10014000642B872B0A2CDD2BEC2BE000E300E20074
:100150004F00510050002C00E000E200E1000000E0
:100160001D001B00060019000500110010003900D9
:1001700004001600070009000A000B000D000E0025
:100180002B0014001A000800150017001C001800AE
:100190000C0035001E001F0020002100220023005B
:1001A0002400250029003A003B003C003D003E00B1
:1001B0003F0040004100000000000000000000007F
:1001C00000000000000000000000000000005200DD
:1001D000E100380000003700360000000000000099
:1001E000000028003400000033000F000000000071
:1001F0004C00310030002F000000130012000000FE
:1002000000004A0000002E002D002A0027002600D2
:100210000000000049004500440043000151420035
:100220000000010001000100C05CBD5CBF5C01007A
:1002300001000100010000000100010001000100B7
:1002400001000100010001000100010001000100A6
:100250000100010001000100010001000100010096
:100260000100010001000100010001000100010086
:100270000100010001000100010001000100010076
:100280000100010001000100010001000100000067
:10029000000000000000000000000000000000005E
:1002A000000000000000BE5C010001000000010031
:1002B000010000000000000000000100010000003B
:1002C0000100010000000000C35C0100010001000A
:1002D00000000100010000000000C25C00000100FD
:1002E000010001000100010000000000A800010061
:1002F00001000100010001000000010001000100F7
:1003000001000100010001000100010001000000E6
:1003100001000100010001000100010001000100D5
:1003200001000100010001000100010001000100C5
:1003300001000100010001000100010001000100B5
:1003400001000100010001000100010001000100A5
:100350000100010001000100010001000100010095
:10036000010001000100000000000000000000008A
:10037000000000000000000000000000000001007C
:100380000100010000000100010000000000000069
:100390000000010001000000010001000000000059
:1003A0000100010001000100000001000100000047
:1003B0000000010000000100010001000100010037
:1003C0000000000001000100010001000100010027
:1003D0000000010001000100010001000100010016
:1003E0000100010001000000010001000100010006
:1003F00001000100010001000100010001000100F5
:1004000001000100010001000100010001000100E4
:1004100001000100010001000100010001000100D4
:1004200001000100010001000100010001000100C4
:1004300001000100010001000100010001000000B5
:1004400000000000000000000000000000000000AC
:100450000000000000000100010001000000010098
:100460000100000000000000000001000100000089
:100470000100010000000000010001000100010076
:100480000000010001000000000001000000010068
:100490000100010001000100000000000100010056
:1004A0000100010001000100000001000100010045
:1004B0000100010001000100010001000100000035
:1004C0000100010001000100010001000100010024
:1004D0000100010001000100010001000100010014
:1004E0000100010001000100010001000100010004
:1004F00001000100010001000100010001000100F4
:1005000001000100010001000100010001000100E3
:1005100001000100010000000000000000000000D8
:1005200000000000000000000000000000000100CA
:1005300001000100000001000100000000000000B7
:1005400000000100010000000100010000000000A7
:100550000100010001000100000001000100000095
:100560000000010000000100010001000100010085
:100570000000000001000100010001000100010075
:100580000000010001000100010001000100010064
:100590000100010001000000010001000100010054
:1005A0000100010001000100010001000100010043
:1005B0000100010001000100010001000100010033
:1005C0000100010001000100010001000100010023
:1005D0000100010001000100010001000100010013
:1005E0000100010001000100010001000100000004
:1005F00000000000000000000000000000000000FB
:1006000000000000000001000100010000000100E6
:1006100001000000000000000000010001000000D7
:1006200001000100000000000100010001000100C4
:1006300000000100010000000000010000000100B6
:1006400001000100010001000000000001000100A4
:100650000100010001000100000001000100010093
:100660000100010001000100010001000100000083
:100670000100010001000100010001000100010072
:100680000100010001000100010001000100010062
:100690000100010001000100010001000100010052
:1006A0000100010001000100010001000100010042
:1006B0000100010001000100010001000100010032
:1006C0000100010001000000000000000000000027
:1006D0000000000000000000000000000000010019
:1006E0000100010000000100010000000000000006
:1006F00000000100010000000100010000000000F6
:1007000001000100010001000000010001000000E3
:1007100000000100000001000100010001000100D3
:1007200000000000010001000100010001000100C3
:1007300000000100010001000100010001000100B2
:1007400001000100010000000100010001000100A2
:100750000100010001000100010001000100010091
:100760000100010001000100010001000100010081
:100770000100010001000100010001000100010071
:100780000100010001000100010001000100010061
:100790000100010001000100010001000100000052
:1007A0000000000000000000000000000000000049
:1007B0000000000000000100010001000000010035
:1007C0000100000000000000000001000100000026
:1007D0000100010000000000010001000100010013
:1007E0000000010001000000000001000000010005
:1007F00001000100010001000000000001000100F3
:1008000001000100010001000000010001000100E1
:1008100001000100010001000100010001000000D1
:1008200001000100010001000100010001000100C0
:1008300001000100010001000100010001000100B0
:1008400001000100010001000100010001000100A0
:100850000100010001000100010001000100010090
:100860000100010001000100010001000100010080
:100870000100010001000000000000000000000075
:100880000000000000000000000000000000010067
:100890000100010000000100010000000000000054
:1008A0000000010001000000010001000000000044
:1008B0000100010001000100000001000100000032
:1008C0000000010000000100010001000100010022
:1008D0000000000001000100010001000100010012
:1008E0000000010001000100010001000100010001
:1008F00001000100010000000100010001000100F1
:1009000001000100010001000100010001000100DF
:1009100001000100010001000100010001000100CF
:1009200001000100010001000100010001000100BF
:1009300001000100010001000100010001000100AF
:1009400001000100010001000100010001000000A0
:100950000000000000000000000000000000000097
:100960000000000000000100010001000000010083
:100970000100000000000000000001000100000074
:100980000100010000000000010001000100010061
:100990000000010001000000000001000000010053
:1009A0000100010001000100000000000100010041
:1009B0000100010001000100000001000100010030
:1009C0000100010001000100010001000100000020
:1009D000010001000100010001000100010001000F
:1009E00001000100010001000100010001000100FF
:1009F00001000100010001000100010001000100EF
:100A000001000100010001000100010001000100DE
:100A100001000100010001000100010001000100CE
:100A200001000100010000000000000000000000C3
:100A300000000000000000000000000000000100B5
:100A400001000100000001000100000000000000A2
:100A50000000010001000000010001000000000092
:100A60000100010001000100000001000100000080
:100A70000000010000000100010001000100010070
:100A80000000000001000100010001000100010060
:100A9000000001000100010001000100010001004F
:100AA000010001000100000001000100010001003F
:100AB000010001000100010001000100010001002E
:100AC000010001000100010001000100010001001E
:100AD000010001000100010001000100010001000E
:100AE00001000100010001000100010001000100FE
:100AF00001000100010001000100010001000000EF
:100B000000000000000000000000000000000000E5
:100B100000000000000001000100010000000100D1
:100B200001000000000000000000010001000000C2
:100B300001000100000000000100010001000100AF
:100B400000000100010000000000010000000100A1
:100B5000010001000100010000000000010001008F
:100B6000010001000100010000000100010001007E
:100B7000010001000100010001000100010000006E
:100B8000010001000100010001000100010001005D
:100B9000010001000100010001000100010001004D
:100BA000010001000100010001000100010001003D
:100BB000010001000100010001000100010001002D
:100BC000010001000100010001000100010001001D
:100BD0000100010001000000000000000000000012
:100BE0000000000000000000000000000000010004
:100BF00001000100000001000100000000000000F1
:100C000000000100010000000100010000000000E0
:100C100001000100010001000000010001000000CE
:100C200000000100000001000100010001000100BE
:100C300000000000010001000100010001000100AE
:100C4000000001000100010001000100010001009D
:100C5000010001000100000001000100010001008D
:100C6000010001000100010001000100010001007C
:100C7000010001000100010001000100010001006C
:100C8000010001000100010001000100010001005C
:100C9000010001000100010001000100010001004C
:100CA000010001000100010001000100010000003D
:100CB0000000000000000000000000000000000034
:100CC0000000000000000100010001000000010020
:100CD0000100000000000000000001000100000011
:100CE00001000100000000000100010001000100FE
:100CF00000000100010000000000010000000100F0
:100D000001000100010001000000000001000100DD
:100D100001000100010001000000010001000100CC
:100D200001000100010001000100010001000000BC
:100D300001000100010001000100010001000100AB
:100D4000010001000100010001000100010001009B
:100D5000010001000100010001000100010001008B
:100D6000010001000100010001000100010001007B
:100D7000010001000100010001000100010001006B
:100D80000100010001000000000000000000000060
:100D90000000000000000000000000000000010052
:100DA000010001000000010001000000000000003F
:100DB000000001000100000001000100000000002F
:100DC000010001000100010000000100010000001D
:100DD000000001000000010001000100010001000D
:100DE00000000000010001000100010001000100FD
:100DF00000000100010001000100010001000100EC
:100E000001000100010000000100010001000100DB
:100E100001000100010001000100010001000100CA
:100E200001000100010001000100010001000100BA
:100E300001000100010001000100010001000100AA
:100E4000010001000100010001000100010001009A
:100E5000010001000100010001000100010000008B
:100E60000000000000000000000000000000000082
:100E7000000000000000010001000100000001006E
:100E8000010000000000000000000100010000005F
:100E9000010001000000000001000100010001004C
:100EA000000001000100000000000100000001003E
:100EB000010001000100010000000000010001002C
:100EC0000100010001000100000000047F3F1F64D9
:100ED0003214643214783C1E1E140A05222325267F
:100EE00028292A2C2D2F3032333536383A3B3D3ED7
:100EF0004042434547494A4C4E5051535557595A21
:100F00005C5E6062646668696B6D6F71737577793A
:100F10007B7D7F81838587898A8C8E909294969839
:100F20009A9C9E9FA1A3A5A7A8AAACAEAFB1B3B44B
:100F3000B6B8B9BBBCBEBFC1C2C3C5C6C7C9CACBA0
:100F4000CCCDCED0D1D2D2D3D4D5D6D7D7D8D9D96B
:100F5000DADADBDBDBDCDCDCDCDCDDDDDDDDDCDCD4
:100F6000DCDCDCDBDBDBDADAD9D9D8D7D7D6D5D4F1
:100F7000D3D2D2D1D0CECDCCCBCAC9C7C6C5C3C2BD
:100F8000C1BFBEBCBBB9B8B6B4B3B1AFAEACAAA812
:100F9000A7A5A3A19F9E9C9A98969492908E8C8AC6
:100FA00089878583817F7D7B79777573716F6D6BA1
:100FB0006968666462605E5C5A5957555351504E79
:100FC0004C4A4947454342403E3D3B3A383635332B
:100FD00032302F2D2C2A292826252322FFAA7F559F
:100FE00040000000000000000000000101010101BC
:100FF00001010101020202020202020203030303D1
:101000000303030404040404050505050506060698
:10101000060607070707080808080909090A0A0A4F
:101020000B0B0B0C0C0C0D0D0D0E0E0E0F0F1010EC
:101030001011111212131314141515161617171870
:101040001819191A1A1B1C1C1D1D1E1F1F202121D7
:1010500022232324252526272828292A2B2C2C2D1A
:101060002E2F30313132333435363738393A3B3C34
:101070003D3E3F404142434445464748494B4C4D25
:101080004E4F50525354555758595A5C5D5E6061EB
:1010900063646567686A6B6C6E6F7172747677797A
:1010A0007A7C7D7F8182848687898B8D8E909294D5
:1010B0009597999B9D9FA1A2A4A6A8AAACAEB0B2F9
:1010C000B4B6B9BBBDBFC1C3C5C8CACCCED0D3D5D9
:1010D000D7DADCDEE1E3E6E8EAEDEFF2F4F7F9FC7B
:1010E000FF0403300000000A034D005400370035B0
:1010F0000000000E0364007A00740065006300685D
:101100000000000403090409023B00020100A0FAE8
:10111000090400000103010100092111010001225D
:1011200040000705810308000A09040100010300CB
:101130000000092111010001223B00070582032064
:10114000000A1201100100000008EDFE60600100BD
:101150000102030105010906A1018505050719E042
:1011600029E7150025019508750181020508190177
:1011700029059505750191029501750391010507F2
:10118000190029EF1500250195F075018102C005B0
:10119000010906A101050719E029E71500250195B8
:1011A0000875018102950175088101050819012959
:1011B00005950575019102950175039101050719C2
:1011C0000029FF150026FF00950675088100C00064
:1011D00011241FBECFEFDAE0DEBFCDBF04B603FEA1
:1011E00027C08091FC029091FD02A091FE02B09177
:1011F000FF028730904BA740B04BD1F41092FC0215
:101200001092FD021092FE021092FF0214BE84B7EB
:10121000877F84BF0FB6F894A8958091600088619D
:1012200080936000109260000FBEE0E0F8E3099543
:1012300011E0A0E0B1E0EEE1FAE502C005900D9208
:10124000A835B107D9F722E0A8E5B1E001C01D92A9
:10125000AC3FB207E1F70E94D4260C940D2D0C94FC
:1012600000000C9438090C94390980E090E008954E
:101270000895089580FF02C03E9A01C03E984698A6
:1012800081FF02C03F9A01C03F98479882FF02C089
:10129000259A01C025982D98089581E0089581E050
:1012A00008950C944F091F93CF93DF9300D000D083
:1012B0001F92CDB7DEB749835A832091BC01898143
:1012C0009A81211112C0662349F00E946C21182FC7
:1012D000682F89819A810E94112103C00E944021B8
:1012E000182F69817A81812F04C00E946C21698145
:1012F0007A810F900F900F900F900F90DF91CF9108
:101300001F910C94360CFC014081518162817381E4
:1013100084810C9453090C943309E82FE295EF7003
:10132000F0E032A1282F2F7081E090E001C0880FFB
:101330002A95EAF78095832382A30895CF92DF92BE
:10134000EF92FF92843030F4811105C090918000BB
:101350009F7D04C083E09091800090629093800014
:10136000282F30E0AFEFBFEF0E949E2C23E030E04B
:1013700040E050E00E94762C2C3784E1380741058C
:10138000510530F4C90169E070E00E944E2C29C07B
:10139000DA01C9018A50974DAF4FBF4F6627782FAA
:1013A000892F9A2F25EF38E241E050E00E94762CF9
:1013B00069017A01CA01B9010E943E2C9B01AC016E
:1013C000C701B6010E943E2CBB27A92F982F872F5B
:1013D000009721E0A207B10511F0BC0102C06FEF38
:1013E0007FEF70938B0060938A00FF90EF90DF9007
:1013F000CF900895269A86E30E948D0982E2809319
:10140000800089E1809381008FEF9FEF90938700A8
:10141000809386000C94ED240E949C22811102C0CE
:101420000E941F230E94FA090C9431090C943A0976
:101430000C94160A08950E94371C0E941A0A2FEF76
:1014400084E39CE0215080409040E1F700C0000020
:101450000C94B0240F931F93CF93DF938C010E94C1
:101460008309EC01B8010E945109882309F4F7C1EE
:10147000B801CE010E949616882309F4F0C1CA3C37
:10148000FCE5DF0741F4F8018281882309F4E7C114
:101490000E94D412E4C1CB3C8CE5D80708F012C1FD
:1014A000C33C9CE5D90761F4F8018281882309F4E3
:1014B000D6C10E94EC218272E1F00E94FF14CFC1DC
:1014C000C43CECE5DE07C0F0C63C9CE5D90709F456
:1014D000CAC008F0DCC0C43CFCE5DF0709F0CBC0A3
:1014E000F8018281882309F4BAC10E94EC2182723A
:1014F00021F30E94F214B3C1C531FCE5DF0708F007
:101500007BC0C2308CE5D80708F452C0F801828154
:10151000882309F454C00E949C22811102C00E94B9
:101520001F230E94AF2290E09093ED028093EC0283
:10153000FE01E350FC45E231F10530F4EA5AFF4F79
:101540008091EC020C94982C8091EC02816027C071
:10155000826025C0846023C0806121C080621FC07A
:1015600080641DC080681BC08460886018C08E7F46
:1015700016C08D7F14C08B7F12C08F7E10C08F7DF0
:101580000EC08F7B0CC08F770AC08B7F877F07C010
:1015900087FB222720F991E0922790FB87F980931F
:1015A000EC028091EC020E94B3220E94371C57C1CA
:1015B000C1159CE5D90751F0C130DC4579F0C8016F
:1015C000DF91CF911F910F910C944D09F801828109
:1015D000882309F444C10E941B0A41C1F801828199
:1015E000882309F43CC180916802982F909590FB64
:1015F00080F98093680233C1C631FCE5DF0739F515
:101600000E94EC21282FF801828140911001509115
:101610001101882379F02A7A91E009F490E09093FF
:101620005801911102C069E201C065E3CA010E943C
:1016300086230AC080915801811102C069E201C06D
:1016400065E3CA010E9491230E94382208C1C23C6E
:10165000DC4509F0B4CFF8018281882309F4FFC08A
:101660000E940D15FCC0F8018281882309F4F7C09F
:101670000E949812F4C0C53CDC4509F0A0CFF801E7
:101680008281882309F4EBC00E948B12E8C0F80124
:101690008281C83CFCE5DF0731F4882309F4DFC010
:1016A0000E94B612DCC0C93CDC4530F4882309F442
:1016B000D6C00E94A712D3C0882309F4D0C00E94CC
:1016C000C512CDC0C13DECE5DE0791F4F801828181
:1016D000882309F4C4C00E9406118F3028F00E94AC
:1016E0000611843108F405CF8FE00E940215B7C0BF
:1016F000C23DFCE5DF0708F05AC0CD3C8CE5D807B9
:1017000039F4F8018281882309F4A9C081E0EDCF82
:10171000CE3C9CE5D907C0F4CB3CECE5DE0741F4B8
:10172000F8018281882309F49AC00E940E1197C0A3
:10173000CC3CDC4509F043CFF8018281882309F4D1
:101740008EC00E941F118BC0F8018281CF3CFCE546
:10175000DF0771F4882309F482C00E9406118630E5
:1017600028F00E940611883008F4C3CE86E0BDCF71
:10177000C03DDC4570F4882309F471C00E94061155
:10178000823028F00E940611853008F4B2CE82E043
:10179000ACCF882309F463C00E940611893028F079
:1017A0000E9406118E3008F4A4CE89E09ECFC53D7C
:1017B000ECE5DE0739F4F8018281882309F44FC093
:1017C00083E293CFC63DFCE5DF0740F5F801828157
:1017D000C33DFCE5DF0729F4882309F440C088E114
:1017E00084CFC43DDC4568F48823C9F10E9406110A
:1017F000853128F00E940611873108F47ACE85E100
:1018000074CF882361F10E940611893128F00E946B
:101810000611823208F46DCE89E167CFCD3DECE54B
:10182000DE0741F4F80182818823C9F082E00E943A
:10183000752715C0CE3DFCE5DF0739F4F80182813C
:10184000882369F00E941F230AC0CC3DDC4509F0C3
:10185000B6CEF8018281882311F080E0E8CF80E0E5
:10186000DF91CF911F910F910895089599E0799F8D
:10187000F00111249CE6899FE00DF11D1124E60F73
:10188000F11DEE0FFF1FE65BFE4F859194910895C9
:10189000880F991FFC01E653F14F859194910895AB
:1018A000CF93DF930E94360C0E94430EEC0181150A
:1018B00021E5920708F042C0811560E5960708F01F
:1018C00031C1883E910500F5803E910508F0D7C1F1
:1018D000883A910570F4853A910508F0A6C08130E8
:1018E000910509F4CCC108F47DC1049708F0C7C183
:1018F00079C18F3B910508F4A3C0803C910508F4A1
:1019000071C1805C9109FDC0C11580E3D80780F4E6
:10191000C11590E2D90708F0F2C0C03FD10508F424
:1019200061C1CF3FD10511F008F0A9C1D065A7C1B1
:10193000C11520E4D20708F0F2C0E7C0811569E5BF
:10194000960760F5C11588E5D80708F037C1C115BD
:1019500094E5D90778F4C11523E5D20708F013C13F
:10196000C11562E5D60708F0F8C0DC2FCC27C16F9F
:10197000D06A85C1C11585E5D80708F41AC1C1151B
:1019800096E5D90708F02EC18C2F0E94C00E8F71EA
:10199000C82FD0E0DC2FCC27D06271C18D3B2CE565
:1019A000920709F416C1F0F4CB3B8CE5D80709F493
:1019B0000AC108F00BC1C1152AE5D20708F012C10F
:1019C0008C2F8F700E94C00E94E0D695C7959A9583
:1019D000E1F7CF70D0E0DC2FCC27D06A8F70806E1B
:1019E000C82B4DC1803C9C4509F4F9C0C13C8CE535
:1019F000D80760F4CE3B9CE5D90709F4EDC0CF3B96
:101A0000DC4509F0EFC0C0E0D2ED39C1CE019056FF
:101A10008115904208F0E6C08D2F8F710E94C00E94
:101A2000DD27D0628F71D82B2AC1853A910509F440
:101A3000DCC0863A910509F0DBC0C2E8D0E41FC1E2
:101A4000883A910509F4D7C0893A910509F4D6C0BE
:101A50008A3A910509F4D5C08B3A910509F4D4C0AE
:101A60008C3A910509F4D3C08B3B910509F4D2C09F
:101A70008C3B910509F4D1C08D3A910509F4D0C091
:101A8000803B910509F4CFC08E3A910509F4CEC090
:101A90008F3A910509F4CDC0813B910509F4CCC082
:101AA000823B910509F4CBC0833B910509F4CAC080
:101AB000843B910509F4C9C0853B910509F4C8C070
:101AC000863B910509F4C7C0873B910509F4C6C060
:101AD000883B910509F4C5C0893B910509F4C4C050
:101AE0008D3B910509F4C3C08E3B910509F4C2C03A
:101AF0008A3B910509F4C1C0C0E0D4E4C0C0CE0166
:101B00009F700E94480CEC01BAC0CE019927D3FF08
:101B100003C0EC01D86CB3C0EC01D06CB0C0DF7076
:101B2000D06AADC0837021E030E002C0220F331FC5
:101B30008A95E2F73C68CE0174E0969587957A9590
:101B4000E1F78370382BCF70C695C69580E2C89FA9
:101B5000E0011124C22BD32B92C04C2F4695469501
:101B600090E2499FA0011124C370DD2721E030E0FD
:101B7000C90102C0880F991FCA95E2F7EC01C42B76
:101B8000D52BDC687CC04C2F4695469580E2489F5B
:101B9000A0011124C370DD2721E030E0C90102C09B
:101BA000880F991FCA95E2F7EC01C42BD52BDA6890
:101BB00066C0DC2FCC27C46FD06A61C0DC2FCC2775
:101BC000C06FD06A5CC0C0E0D4ED59C0C0E0D5EDB4
:101BD00056C0C0E0D1ED53C0C0E0D0ED50C0C0E071
:101BE000D3ED4DC0C0E0D0E04AC0C1E8D0E447C06A
:101BF000C3E8D0E444C0C2EED4E441C0C9EED4E4AA
:101C00003EC0CAEED4E43BC0C5EBD4E438C0C6EB5A
:101C1000D4E435C0C3EBD4E432C0C4EBD4E42FC069
:101C2000C7EBD4E42CC0CCECD4E429C0CDECD4E494
:101C300026C0C3E8D5E423C0CAE8D5E420C0C2E981
:101C4000D5E41DC0C4E9D5E41AC0C1E2D6E417C08A
:101C5000C3E2D6E414C0C4E2D6E411C0C5E2D6E4BF
:101C60000EC0C6E2D6E40BC0C7E2D6E408C0CFE699
:101C7000D4E405C0C0E7D4E402C0CAE2D6E4CE0191
:101C8000DF91CF9108958238910549F1B0F4813305
:101C9000910509F458C048F48932910509F44EC001
:101CA0008A32910509F454C008958533910509F4E9
:101CB00040C08933910599F00895833E910529F13B
:101CC00038F4803E910591F0823E9105A1F008958F
:101CD000863E9105F9F0873E910531F108952091F6
:101CE000EC0220FD3AC021FD38C008958091EC023D
:101CF00080FD35C032C08091EC0282FF32C08091FD
:101D0000EC0284FD30C083EE39C08091EC0282FD8C
:101D100028C0F5CF8091EC0283FF27C08091EC02B0
:101D200084FD21C087EE2AC08091EC0283FD1DC096
:101D3000F5CF8091EC0285FD1AC01BC08091EC02AA
:101D400085FD17C014C08091EC0286FD14C015C03B
:101D50008091EC0286FD11C00EC080EE0FC089E3B9
:101D60000DC082EE0BC080E009C086EE07C089E29C
:101D700005C085E303C08AE201C081E390E00895D5
:101D80009091EC0292FF0DC0282F2871283019F491
:101D9000877F846006C0282F2471243011F48B7F44
:101DA000886093FF0DC0282F2871283119F4877E91
:101DB000846106C0282F2471243111F48B7E886140
:101DC00094FD877E0895E82FF0E0EE0FFF1FE75A9D
:101DD000FE4F8081918108950895ADE1B1E041E029
:101DE00050E029E02A0F8D91E82FE295EF70F0E0A6
:101DF00031A18F70BA0102C0660F771F8A95E2F792
:101E0000CB01962F9095932391A392A1892B82A326
:101E10002A13E9CFA6E2B1E041E050E02CE02A0F1E
:101E20008D91E82FE295EF70F0E031A18F70BA014B
:101E300002C0660F771F8A95E2F7CB01962F909527
:101E4000932391A392A1892B82A32A13E9CFE1E7DF
:101E5000F1E0A9E5B1E0119211921D921D9271E09D
:101E6000E938F707C1F78CE00E94D40F0C940C0AF4
:101E70002F923F924F925F926F927F928F929F929A
:101E8000AF92BF92CF92DF92EF92FF920F931F9388
:101E9000CF93DF936DE171E080E090E0312C01E0C1
:101EA00010E0EB012991BE01E22FE295EF70F0E026
:101EB00031A12F70580101C0AA0C2A95EAF7232FEF
:101EC0002A2921A322A12A2C2094222122A3D0EA6C
:101ED000DA95F1F77801082E02C0EE0CFF1C0A9487
:101EE000E2F737016094709426E2C22E21E0D22EF0
:101EF000A1E7B1E0512C4D012D913C911197E601E4
:101F000049906E01442D42954F7050E0EA0148A17E
:101F100050E0D42DDF7002C055954795DA95E2F771
:101F200040FD04C0A9014E295F2903C0A901462133
:101F3000572111965C934E931296E4014881598182
:101F40002417350711F055245394D1E0A938BD0763
:101F500091F621A1D22DD223D1A322A1A22AA2A2FD
:101F6000352801968930910509F09BCF232D4CE04F
:101F700069E571E081E791E00E94D50F0E948B092D
:101F8000832DDF91CF911F910F91FF90EF90DF9004
:101F9000CF90BF90AF909F908F907F906F905F9009
:101FA0004F903F902F9008950895FF920F931F93A5
:101FB000CF93DF93F82E092F162FD72FC42F22236C
:101FC00049F081E080938B010E94542490938A0110
:101FD0008093890180918B018823D9F080918901B8
:101FE00090918A010E946024069798F0EF2DF02FBF
:101FF000A12FBD2F80E090E04C2F50E08417950773
:1020000034F4219131912D933D930196F7CF1092A5
:102010008B01DF91CF911F910F91FF900895CF9287
:10202000DF92EF92FF920F931F93CF93DF937B0189
:10203000282F382FE82FF0E0F11006C0EF51F04FB5
:102040006491762F862F7BC00F2D10E046E0649FB1
:10205000C0011124CFEFD0E0BE010E944E2CAB0195
:102060006BEA6403C001659F900D11248E0D911DD4
:102070008E0D911D982F990F890FBE01601B710B5A
:102080006E9FD0016F9FB00D7E9FB00D11249B2FCE
:102090008F9DB0011124672F77277E01E61AF70A7A
:1020A000EE9EB001EF9E700DFE9E700D11246E012C
:1020B000C81AD108C09E7001C19EF00CD09EF00CD1
:1020C00011240F2D1127C01BD10BCE9F8001CF9F54
:1020D000100DDE9F100D1124812F4230510591F01B
:1020E0004CF441155105E1F041305105B9F4822F0E
:1020F000272F16C04430510569F044F04630510591
:1021000079F00CC0822F2B2F912F0AC02B2F932FE9
:10211000872F06C08B2F922F212F02C08B2F972F36
:10212000E22FF0E0EF51F04F7491E82FF0E0EF5123
:10213000F04F6491E92FF0E0EF51F04F8491DF917F
:10214000CF911F910F91FF90EF90DF90CF90089566
:102150000895CF93DF93762FE901682F842F0E9493
:102160000F10798368838A83DF91CF9108954D3D65
:1021700008F04CED0C94A91080918F02282F269521
:1021800030E02115310519F48170826005C02532D7
:10219000310524F08170886480938F0280919202CF
:1021A0008D3D18F08CED80939202089588E090E0C8
:1021B0000C94CD2CCF93DF9300D000D0CDB7DEB7F9
:1021C000AB01BC0149835A836B837C830E94BC10A2
:1021D00049815A816B817C8188E090E00F900F905B
:1021E0000F900F90DF91CF910C94EB2CEFE8F2E081
:1021F00083E0808311828FEF82838CED838314824E
:1022000060817181828193810C94DA1080918F02B8
:1022100080FF02C08695089580E008958091930222
:10222000833018F48F5F8093930260918F027091D6
:10223000900280919102909192020C94DA10809118
:102240009302882319F081508093930260918F024A
:102250007091900280919102909192020C94DA1008
:102260006091040170E080918F0280FF0AC080912C
:10227000900123E0829FC00111248C569D4F0C9445
:10228000261680918F0190910301891780F7E82F1E
:10229000F0E09F01220F331FE20FF31FEC56FD4FBA
:1022A0001182108212828F5FF0CF90918F0290FF87
:1022B00016C090918F0120910301921770F4E92FBD
:1022C000F0E0DF01AA0FBB1FEA0FFB1FEC56FD4F2A
:1022D0008183608342839F5FF0CF0C943011089517
:1022E000CF93DF9300D01F92CDB7DEB790918F02CE
:1022F00090FF0AC09E012F5F3F4F0E94B7104B8195
:1023000069818A810E9455110F900F900F90DF9183
:10231000CF910895CF93DF93EC01EC81F0E0E4528C
:10232000F14F4491EFE8F2E0628181810E947011E7
:102330008C818F5F8C83DF91CF910895CF93DF9352
:10234000EC01EFE8F2E0438162818C810E94701120
:102350008C818F5F8C83DF91CF9108950F931F93B2
:10236000CF93DF9300D01F92CDB7DEB78C01809161
:102370008C0181110AC09E012F5F3F4F4CED6FEF22
:102380000E94B7108A8180938C01F801848181308A
:1023900051F028F0823061F440918C010AC08091A4
:1023A0008C0140E007C060918C0140E080E003C0F8
:1023B00040E080E060E00E945511F801248130E0A7
:1023C000C901019663E070E00E94622C84830F9043
:1023D0000F900F90DF91CF911F910F910895AF92C1
:1023E000BF92CF92DF92EF92FF920F931F93CF9302
:1023F000DF9300D01F92CDB7DEB7182FF62E042F33
:10240000E22E90918F0290FF6EC0E92FE695AE2FDD
:10241000B0E0AE5CBE4F8C91809398019E7F92306D
:1024200061F49E012F5F3F4F812F0E94B7104B81B7
:1024300069818A810E94551144C0823019F400914B
:1024400092023FC0863019F4109190023AC0893050
:10245000D9F38931B1F5E9518E2F8170D82EE695E7
:10246000F0E0E452F04FA590B490C12CBB246091F1
:102470000201C61620F5EC2DF0E0EA9DC001EB9DAF
:10248000900DFA9D900D112470E00E944E2C812F2A
:10249000D11002C0860F01C0861B90918F01E90FF9
:1024A000F11D9F01220F331FE20FF31F9F012C56D6
:1024B0003D4F402F6F2D0E94B710C394D8CF0E947C
:1024C000301110939002F092910200939202EE204C
:1024D00051F060918F0270919002809191029091E1
:1024E00092020E94DA100F900F900F90DF91CF911F
:1024F0001F910F91FF90EF90DF90CF90BF90AF9022
:102500000895EFE8F2E09181282F4381628188E00D
:10251000890F0C94EF1181E00C948112EFE8F2E046
:102520009181282F4381628188EF890F0C94EF11EC
:1025300081E00C948E12EFE8F2E0628128E0620FF5
:1025400008F46FEF282F438181810C94EF1181E013
:102550000C949B12EFE8F2E0628128E0621B08F421
:1025600060E0282F438181810C94EF1181E00C946D
:10257000AA12EFE8F2E0438128E0420F08F44FEF9F
:10258000282F628181810C94EF1181E00C94B912A3
:10259000EFE8F2E0438128E0421B08F440E0282FF6
:1025A000628181810C94EF1181E00C94C81220E0CB
:1025B0000C94EF11FF920F931F93CF93DF93EC01D5
:1025C000F12C0FEF10E060910201F616E8F4209173
:1025D0008F0130E02F0D311DC901880F991F280F81
:1025E000391F2C563D4F70E0C8010E94622C962F77
:1025F0008C814091920260919102F99E800D11248C
:102600000E94B710F394DFCF0E9430119A818C8121
:1026100090FF02C08F5F01C081508C83DF91CF910A
:102620001F910F91FF900895BF92CF92DF92EF928A
:10263000FF920F931F93CF93DF93FC01828180FF62
:1026400002C00FEF01C001E010E0809102011817F5
:10265000E0F5C12ED12C80918F01E601C80FD11D6C
:10266000CE01880F991FC80FD91FCC56DD4F198294
:1026700018821A8234E0E32EF12CB12C80918E0165
:102680008B0D87FF03C090910201890F082E000C6B
:10269000990BC816D90691F4809192028E9DA001E3
:1026A0008F9D500D112455954795559547959E0141
:1026B00060919102809190020E94B710B00EF1E0FB
:1026C000EF1AF108D9F61F5FC0CF0E943011809138
:1026D0008E01013031F4811102C0809102018150DC
:1026E00007C090E001966091020170E00E94622CA8
:1026F00080938E01DF91CF911F910F91FF90EF900A
:10270000DF90CF90BF900895CF9380918F019091EB
:102710000301891770F4E82FF0E09F01220F331FA7
:10272000E20FF31FEC56FD4F1182108212828F5F71
:10273000F0CFC0E060910201C617B8F5EC2FF0E0D1
:1027400070E0CF010E94622C40918F01480F809170
:102750008D01082E000C990B50E0E817F907C4F022
:1027600020910101022E000C330B2E173F0784F03D
:102770009A01220F331F240F351F2C563D4F4091D5
:10278000920260919102809190020E94B7100BC05A
:10279000FA01EE0FFF1F4E0F5F1FFA01EC56FD4FBF
:1027A000118210821282CF5FC5CF0E94301120911A
:1027B000000180918D01820F80938D019091010124
:1027C000920F9093010119165CF4082E000C990BDE
:1027D0004091020150E041505109841795071CF0C7
:1027E000219520930001CF9108950F931F93CF93CC
:1027F000DF938C01FC01848195810196817099277A
:1028000095838483C0E0D5E580910201C817F8F470
:1028100020918F0130E02C0F311DC901880F991FC5
:10282000280F391F2C563D4F4C2F4695F8018481B7
:102830009581840F911D8170409192026091910267
:102840008D9F802D11240E94B710CF5FDDCFDF91C7
:10285000CF911F910F910C9430110F931F93CF9331
:10286000DF93EC0100E010E080910201282F30E0BE
:102870000217130724F590918F019801290F311D3C
:10288000A901440F551F240F351F2C563D4F869527
:1028900090E04C81081719071CF4442331F002C062
:1028A000411103C04091920201C040E06091910249
:1028B000809190020E94B7100F5F1F4FD5CF0E94EA
:1028C00030112C8130E02F5F3F4F217033272C8354
:1028D000DF91CF911F910F910895EFE8F2E0808191
:1028E0008E7F808360817181828193810E94DA1062
:1028F000109299012FEF80E792E0215080409040A4
:10290000E1F700C000000C943011EFE8F2E08081A4
:102910008E7F8083109299012FEF80E792E0215003
:1029200080409040E1F700C000000C9430116091AD
:102930008F02669570E04BE050E085E091E00E94E8
:10294000B82C892B19F481E0809399010E945424BA
:102950009093920180939101089590918F0290FF3E
:1029600035C09170811102C0926006C0853210F0AE
:10297000986402C0880F982B90938F02662351F0C1
:1029800060918F02709190028091910290919202D9
:102990000E94DA1060918F02669570E04BE050E083
:1029A00085E091E00E94B82C892B19F010929901D2
:1029B00002C00E94971481E080939401409192029A
:1029C00060919102809190020C94D7120895682F23
:1029D00090918F02969581E0890F853208F081E011
:1029E0000C94AD1481E00C94E714682F90918F0241
:1029F00096958FEF890F09F484E20C94AD1481E071
:102A00000C94F51461E00C94AD14EFE8F2E08081D1
:102A10008160808386950C94021580918F0280FDE1
:102A20000C946D140C94051560E00C94AD14809119
:102A30009701811133C080916802816080936802A0
:102A40000E949C22811104C00E941F230E94F61044
:102A50000E94D61060938F0270939002809391022F
:102A6000909392026E7F61F40E94F6100E94D6103D
:102A700060938F02709390028093910290939202E0
:102A80000E94BC101092990180918F0280FF03C0B8
:102A900086950E94141581E0809397010895EFE8D0
:102AA000F2E080818160808386950C9414151092E9
:102AB000990108950F931F93CF93DF93809199010C
:102AC000882309F48CC080919801E0918F02E695EB
:102AD000E81BE0939301823049F4F0E0E852F14FB3
:102AE000E491CE2FD0E00AE811E149C0863049F4E4
:102AF000F0E0EB52F14FE491CE2FD0E00EE911E17E
:102B00003EC0893051F4E695F0E0EE52F14FE49189
:102B1000CE2FD0E00AED12E132C08F3051F4E695AD
:102B2000F0E0E153F14FE491CE2FD0E004E113E166
:102B300026C0853149F4F0E0E453F14FE491CE2F03
:102B4000D0E004E813E11BC0883181F0833239F40E
:102B5000EAECFEE0C591D4910EEA11E110C0843296
:102B600051F4C4EFD1E00DE214E109C0C8EED3E0A6
:102B700005EF13E104C0C0EDD7E008EA10E1809151
:102B80009401882389F0109294010E9454249E019C
:102B900020953095820F931F90939201809391011D
:102BA000109296011092950180919101909192015D
:102BB0000E9460248C179D0790F0E0919101F091A4
:102BC0009201CE0FDF1FD0939201C093910181E952
:102BD00091E0F801DF91CF911F910F910994DF915E
:102BE000CF911F910F9108952EB1342F309523234B
:102BF0003EB1432B3FB7F894FC01680F791FE617ED
:102C0000F70789F0819198E04EB9000000C087FF76
:102C10002EB9880F000000C000C000C02EB900C04F
:102C20009A9591F7ECCF3FBF08952DB1242B2DB984
:102C30009B01220F331F620F731F0E94F41587EC54
:102C400090E00197F1F700C00000089544E00C9473
:102C500015160F931F93CF93DF93C62FD42F022FF8
:102C6000FC0182818823C9F060939C010E94542456
:102C700090939B0180939A0180E28C0F883008F03A
:102C800050C0C77081E001C0880FCA95EAF7DF9194
:102C9000CF911F910F910C94C91910919C0116139B
:102CA00030C080919A0190919B010E946024883CE1
:102CB000910538F5C0E2CD0F1D17B9F080E2810F04
:102CC000883040F4177081E001C0880F1A95EAF748
:102CD0000E94D019C83048F481E09D2F977001C040
:102CE000880F9A95EAF70E94C919802F0E94B61999
:102CF000C830B8F4D77081E001C0880FDA95EAF7E0
:102D00000AC080E28C0F883060F4C77081E001C097
:102D1000880FCA95EAF7DF91CF911F910F910C941C
:102D2000D019DF91CF911F910F9108959C01CB0194
:102D3000203F4CE53407F9F078F4283DFCE53F07E7
:102D4000B9F0293D4CE5340711F1273D3C4531F5FB
:102D500026E241EE61EE1EC0223FFCE53F0799F0FE
:102D600070F0233F3C45D1F427E245EE66EE12C0F9
:102D700027E245EE0EC026E241EE60EE0BC027E2F0
:102D800045EE64EE07C026E241EE62EE03C028E2A3
:102D900041E065EE0E94291680E00895FC018281E1
:102DA000882319F010929C01089581E00895909372
:102DB000A2018093A1010895E091A101F091A201E7
:102DC000309721F00190F081E02D099480E0089582
:102DD000E091A101F091A201309799F020911C019E
:102DE000222359F02091EC0227FF07C0DC012C912F
:102DF00011962C93119725E02C930280F381E02DFE
:102E00000994089520919F013091A00182179307A2
:102E100071F09093A00180939F01E091A101F09146
:102E2000A201309721F00680F781E02D09940895E2
:102E300020919D0130919E018217930771F090932C
:102E40009E0180939D01E091A101F091A201309734
:102E500021F00084F185E02D0994089585B78068FC
:102E600085BF85B7806885BF0895089508950C943F
:102E7000361708950C9439170E942E170E943517A3
:102E80000C94371781E008950E944B240E94ED0EA8
:102E90000E94D4240E94ED240E9417150C943A1726
:102EA0004F925F927F928F929F92AF92BF92CF92FA
:102EB000DF92EF92FF920F931F93CF93DF93CDB7E3
:102EC000DEB72A970FB6F894DEBF0FBECDBF0E94C3
:102ED000380F0E944217811111C08FEF89838A83B6
:102EE0001B820E9454248160782F9D838C834981AA
:102EF0005A816B818D810E940C1857C094EAC92EAB
:102F000091E0D92E00E010E0AA24A394B12C702EF9
:102F1000802F0E94E30E4C01F601419051906F0109
:102F2000482659264114510431F40F5F1F4F0C30CD
:102F3000110569F7D2CF8091680281FD0E94EC0EE5
:102F400020E030E07501022E02C0EE0CFF1C0A9456
:102F5000E2F7C70184219521892B09F12E837F8215
:102F60008E209F2091E0892809F490E098870E94A4
:102F700054248160782F9A8789874E815F81688584
:102F80008A850E940C18000F111FF801EC55FE4FA6
:102F900080819181E826F926F182E08206C02F5FC8
:102FA0003F4F2930310571F6C0CF1091A3010E9427
:102FB000DC161817D9F00E94DC168093A3012A961C
:102FC0000FB6F894DEBF0FBECDBFDF91CF911F913A
:102FD0000F91FF90EF90DF90CF90BF90AF909F90B8
:102FE0008F907F905F904F900C94180A2A960FB69E
:102FF000F894DEBF0FBECDBFDF91CF911F910F912F
:10300000FF90EF90DF90CF90BF90AF909F908F9008
:103010007F905F904F900895CF93DF93CDB7DEB749
:103020002B970FB6F894DEBF0FBECDBF4F835887E6
:1030300069877A878B87DE01119686E0FD01119200
:103040008A95E9F785E0FE01379601900D928A9501
:10305000E1F749815A816B817C818D819E810E943B
:10306000E11E2B960FB6F894DEBF0FBECDBFDF91E9
:10307000CF910895FC01808191810E94AD21089536
:10308000882309F413C1682F8238C1F40E94DC162A
:1030900081FD0CC169E380911001909111010E94A2
:1030A00086230E9438222FEF81EE94E02150804049
:1030B0009040E1F700C0000069E319C08338F9F4DB
:1030C0000E94DC1680FDF2C063E5809110019091B2
:1030D00011010E9486230E9438222FEF81EE94E096
:1030E000215080409040E1F700C0000063E58091EE
:1030F0001001909111010E9491230C943822843880
:10310000C1F40E94DC1682FDD1C067E480911001F9
:10311000909111010E9486230E9438222FEF81EEA8
:1031200094E0215080409040E1F700C0000067E447
:10313000DECF8CEF860F813A38F4809110019091A8
:1031400011010E948623D9CF80E2860F883048F48F
:10315000677081E001C0880F6A95EAF70E94EF214D
:10316000CCCF8BE5860F833070F4653A29F0663A50
:1031700031F083E890E005C081E890E002C082E889
:1031800090E00C94021788E5860F873108F08EC016
:10319000683A09F445C0693A09F445C06A3A09F445
:1031A00045C06B3A09F445C06C3A09F445C06B3B25
:1031B00009F445C06C3B09F445C06D3A09F445C0BB
:1031C000603B09F445C06E3A09F445C06F3A09F412
:1031D00045C0613B09F445C0623B09F445C0633B0F
:1031E00009F445C0643B09F445C0653B09F445C09A
:1031F000663B09F445C0673B09F445C0683B09F4E8
:1032000045C0693B09F445C06D3B09F445C06E3BC0
:1032100009F445C06A3B09F445C080E090E044C031
:1032200082EE90E041C089EE90E03EC08AEE90E0F0
:103230003BC085EB90E038C086EB90E035C083EB77
:1032400090E032C084EB90E02FC087EB90E02CC080
:103250008CEC90E029C08DEC90E026C083E891E0F2
:1032600023C08AE891E020C082E991E01DC084E992
:1032700091E01AC081E292E017C083E292E014C0AC
:1032800084E292E011C085E292E00EC086E292E014
:103290000BC087E292E008C08FE690E005C080E7AF
:1032A00090E002C08AE292E00C94181708958823F7
:1032B00009F45BC0682F823879F40E94DC1681FF24
:1032C00054C069E380911001909111010E948623FE
:1032D0000E94382269E310C08338B1F40E94DC16E2
:1032E00080FF43C063E580911001909111010E941D
:1032F00086230E94382263E580911001909111018C
:103300000E9491230C943822843879F40E94DC16B0
:1033100082FF2BC067E480911001909111010E94FF
:1033200086230E94382267E4E7CF8CEF860F813A2C
:1033300018F380E2860F883048F4677081E001C09E
:10334000880F6A95EAF70E94F521DCCF8BE5860F9E
:10335000833020F480E090E00C940217685A6731C3
:1033600020F480E090E00C9418170895CF93C82FB4
:103370000E944018C93349F42FEF83EC99E02150A3
:1033800080409040E1F700C000008C2FCF910C945A
:103390005719882321F00E94EF210C9438220895B8
:1033A000882321F00E94F5210C94382208954F9231
:1033B0005F926F927F92BF92CF92DF92EF92FF92D5
:1033C0000F931F93CF93DF937C01062FC72FFC0130
:1033D000158112951F70D281D1110E940C220E947A
:1033E000E521882379F0DD2369F080E2800F8830C1
:1033F00048F082E00E9483220E94E52191E0B82EED
:10340000B92601C0B12CCC2EC2948FE0C822D12C99
:10341000F601E859FF4F0C94982C8C2F807FCF70C9
:10342000882311F0C295C07FDD2399F0CC2309F4E5
:1034300062C180E2800F883010F0011104C08C2F2F
:103440000E94EF2103C08C2F0E94FF210E9438228E
:1034500052C1802F0E945719CC2309F495C180E2F4
:10346000800F883010F0011104C08C2F0E94F521CC
:1034700003C08C2F0E9405220E94382285C18C2F08
:10348000807FCF70803211F0C295C07F002319F089
:103490000130C9F022C0DD2371F0112341F0113059
:1034A00031F40E941F228C2B0E9425226DC10E94A4
:1034B0001F228C2BD8C0112319F0113009F464C1DC
:1034C0000E942E2218C0DD2321F0163008F05CC1C6
:1034D0000EC0153008F058C10EC0DD2351F0112385
:1034E00031F0F701858180FF06C18F7085838C2FB5
:1034F000BAC0111111C18C2FBCC08C2F837009F080
:103500004BC0D1114DC1202F229526952770220F37
:10351000220F602F6F70862F90E0A0E0B0E02C01AA
:103520003D01022E04C0440C551C661C771C0A94F5
:10353000D2F704FF10C08FE090E0A0E0B0E004C03C
:10354000880F991FAA1FBB1F2A95D2F780959095C7
:10355000A095B09503C080E090E0DC01C695C695CB
:10356000C370D0E0BC01CD01642975298629972953
:10357000C230D10559F0C330D10559F0219719F067
:103580000E9426200DC10E9414200AC10E943820EA
:1035900007C10E94122004C1DD2319F08C2F817015
:1035A00001C08695882309F4FBC0202F229526951B
:1035B0002770220F220F602F6F70862F90E0A0E0FF
:1035C000B0E02C013D01022E04C0440C551C661CC9
:1035D000771C0A94D2F704FF10C08FE090E0A0E0BF
:1035E000B0E004C0880F991FAA1FBB1F2A95D2F70D
:1035F00080959095A095B09503C080E090E0DC01A7
:10360000C695C695C370D0E0BC01CD01642975296B
:1036100086299729C230D10559F0C330D10559F018
:10362000219719F00E94EC20BBC00E94DA20B8C09C
:103630000E94FE20B5C00E944D20B2C0802F90E0B5
:10364000FC01E05EF109E531F10508F050C0E858F1
:10365000FF4F0C94982C0F708C2F8F71DD2331F05D
:103660000E947320802F0E94C9198EC00E9494204E
:10367000802F0E94D01988C0DD2341F0153008F05A
:1036800083C08C2F8F710E94B9207EC0163008F045
:103690007BC0F7CFDD2339F08C2F8F710E94732010
:1036A00073C0DD23C9F38C2F8F710E9494206CC0EE
:1036B000DD2329F08C2F8F710E945E2065C00E944F
:1036C000592062C0DD2349F0CF718C2F0E947320F6
:1036D00063E08C2F0E946E2257C081E00E948322FB
:1036E000123008F451C082E00E9483224DC0DD23D5
:1036F00031F0112389F2802F0E94401845C0112318
:1037000091F2093349F4FFEF23EC89E0F1502040B6
:103710008040E1F700C00000802F0E94571934C09C
:103720004C2F4F70602FC7010E9435090E94851FE2
:103730003BC0D11139C0CF70D0E0C230D10599F073
:103740003CF4209769F02197F9F40E9427252CC0BA
:10375000C430D10571F054F02597B1F480E00AC06F
:103760000E940A2521C00E9466251EC00E946D2568
:103770001BC083E00E94902517C04C2F4F70602F14
:10378000C7010E94350C10C098E0C916D10441F061
:103790005CF0FAE0CF1AD10822E0C216D10420F47E
:1037A0000E94DC160E94180ABB20F1F00E94E12161
:1037B00080FD1AC0F70112820E94DB210E94732053
:1037C000C7010E94021C0E94DB21DF91CF911F9153
:1037D0000F91FF90EF90DF90CF90BF907F906F9010
:1037E0005F904F900C949420DF91CF911F910F9197
:1037F000FF90EF90DF90CF90BF907F906F905F90A1
:103800004F9008950F931F93CF93DF93EC0188811E
:1038100099812B813C81232BB9F09F3F11F48F3F7D
:1038200099F0CE010E942A0A882371F0688179817B
:103830008A810E94B8218C010E9410210E941120CF
:10384000B801CE010E94D719DF91CF911F910F913E
:1038500008950E940C220E941C220C943822809110
:103860001001909111010E949C230C94291C0E942C
:10387000FC210C942F1CE92FE295EF70F0E03297B9
:10388000EE30F105B0F4E357FF4F0C94982C803FD5
:1038900091F018F4803E68F40EC0843F51F40BC0E0
:1038A000803E48F0813F29F406C093FB882780F9C9
:1038B000089580E0089581E008950E94AD210E945E
:1038C0003B1C0895CF93DF9300D000D01F92CDB75B
:1038D000DEB70F900F900F900F900F90DF91CF9168
:1038E0000895CF93DF9300D000D000D0CDB7DEB7DE
:1038F00026960FB6F894DEBF0FBECDBFDF91CF91F5
:1039000008951F93CF93DF93C091BD0116E080917E
:10391000BE01C81799F0D0E01C9FF0011D9FF00D6B
:103920001124E154FE4F4081518162817381848171
:1039300095810E94711C2196C770E9CFDF91CF91CC
:103940001F9108954091EF015091F0016091F101B4
:103950007091F2018091F3019091F4010C94711C2B
:103960008091F40182958F7009F054C08091F1012B
:10397000882309F44FC08091BD01A091BE016091E0
:10398000EF017091F0014091F2015091F301B6E026
:103990008A1709F43FC090E041155105C1F17F3FFE
:1039A00011F46F3FA1F1B89FF001B99FF00D112400
:1039B000E154FE4F218172132AC02081621327C077
:1039C0002281211124C0238134812417350710F46A
:1039D00021503109241B350B283C3105C0F42091BE
:1039E000F4012F7020612093F40126E0289FF0015C
:1039F000299FF00D1124EC53FE4F80818F70806160
:103A000080838FEE91E00E94021C0C94811C019631
:103A10008770BECF0895CF92DF92EF92FF920F93FF
:103A20001F93CF93DF93CDB7DEB762970FB6F894AD
:103A3000DEBF0FBECDBF8C0185E0F801DE011D9613
:103A400001900D928A95E1F7D8014C9111965C9105
:103A5000119712966C9112971396CD90DC90149753
:103A60003091EF017091F0018091F2019091F3019A
:103A7000009709F46BC17F3F19F43F3F09F466C119
:103A8000E090F101EE2009F4C0C02091F401C816C5
:103A9000D90628F0F601E81BF90BCF0104C0809588
:103AA00090958C0D9D1DFF24F394883C910578F032
:103AB000F12C207F09F0C6C07C2DD98AC88A89895B
:103AC0000E94621C8FEE91E00E94021CB1C0822F06
:103AD000807F09F046C0751314C0341312C0611101
:103AE00010C02F7020612093F4010E94A21C8FEE61
:103AF00091E00E94021C8091F401D80115968C93EC
:103B00002EC0CD2819F15F3F11F44F3FF9F0F62E8A
:103B100061111CC08091BD012091BE0136E0821769
:103B200009F45AC090E0389FF001399FF00D11243C
:103B3000E154FE4F7181571306C07081471303C0D3
:103B40007281711103C001968770E9CFF62E66234A
:103B500009F427C18091F40181608093F401F12C74
:103B600020C1751308C0341306C0611104C08091D0
:103B7000F401D801C3C04D875E878D859E856A8B11
:103B80000E945D1C6A898823E1F16623D1F12091AE
:103B9000F401822F82958F7090E0029774F08091EB
:103BA000EF019091F00198878F831986DB86CA8692
:103BB0002C87CE0107960E94021C86E0F801AFEE2A
:103BC000B1E001900D928A95E1F70E94B01C0E942D
:103BD000A21CFF24F394E5C04D875E878D859E85EA
:103BE0000E94AD21292F22952F7030E0223031051F
:103BF0000CF0CBC09F7009F0C5C0805E883008F41F
:103C0000D0C0C8010E94021CE4CFC816D90608F42F
:103C100053C0F601E81BF90BCF01883C910508F46D
:103C200050C0F12C7C2DD98AC88A89890E94621CD7
:103C3000EFEEF1E086E0DF011D928A95E9F70E9440
:103C4000A21CAFC0751314C0341312C0611110C090
:103C50008091F401F8018583C8010E94021C86E06E
:103C6000EFEEF1E0DF011D928A95E9F7FE2C99C095
:103C70004D875E878D859E856A8B0E945D1C6A8953
:103C8000882309F4BECF662309F4BBCF2091F40149
:103C9000822F82958F7090E002970CF48ECF8091E6
:103CA000EF019091F0019A8389831B82DD82CC829F
:103CB0002E83CE0101967FCF809590958C0D9D1D12
:103CC000ACCFF62E662309F49CCF75132EC03413A7
:103CD0002CC02091F40120FD1FC0822F82958F708F
:103CE000D9F0D80115962C9315978F3049F08F5F36
:103CF000982F9295907F822F8F70892B15968C9399
:103D0000C8010E94021C86E0F801AFEEB1E001900C
:103D10000D928A95E1F793CF86E0F801AFEEB1E01E
:103D200001900D928A95E1F73CC04D875E878D85A5
:103D30009E850E945D1C811140CF8091F4018160BD
:103D40008093F401C8010E94021C2BC0662309F471
:103D500058CF4D875E878D859E850E945D1CF82E0D
:103D6000882309F44ECF86E0F801AFEEB1E0019070
:103D70000D928A95E1F78FEE91E00E943A180E9429
:103D8000B01C5DCF811139CF0CC0243031050CF04F
:103D900038CF9F7009F431CFF8019581907F09F0F9
:103DA0002CCF8F2D62960FB6F894DEBF0FBECDBF1D
:103DB000DF91CF911F910F91FF90EF90DF90CF9007
:103DC00008951F93CF93DF93CDB7DEB72C970FB62F
:103DD000F894DEBF0FBECDBF4F83588769877A87BF
:103DE0008B879C87CE0107960E940B1D882369F064
:103DF0008F8198852A853B85232BF1F19F3F09F020
:103E000063C08F3F09F060C037C086E0FE0137967F
:103E1000DE01119601900D928A95E1F76F81788508
:103E2000EA85FB85309741F17F3F11F46F3F21F127
:103E30002091BE0130E0C901019687709927409119
:103E4000BD0150E08417950709F447C069837A8360
:103E5000FD83EC8396E0929FD001939FB00D1124D7
:103E6000A154BE4FFE01319601900D929A95E1F753
:103E70008093BE010E94811C16E08091BD0190914B
:103E8000BE018917C1F1189FC001112481549E4FB2
:103E90000E940B1D882379F1E091BD011E9FF00166
:103EA0001124E154FE4F40815181628173818481EC
:103EB00095810E94711C8091BD0190E001968770F0
:103EC00099278093BD01D9CF4F81588569857A851F
:103ED0008B859C850E94711CCFCF0E94371C10924D
:103EE000BE011092BD01EFEEF1E086E0DF011D9210
:103EF0008A95E9F7C1CF2C960FB6F894DEBF0FBEB6
:103F0000CDBFDF91CF911F910895EF92FF920F9354
:103F10001F93CF93DF938C01892B09F46CC0F12C94
:103F2000EE24E394E8012196F8018491843740F46B
:103F3000843008F051C0813081F0823019F15BC0CB
:103F4000853709F444C0A8F19CE7980F903708F032
:103F500052C08F770E94571941C00E5F1F4FFE015C
:103F6000C49180E28C0F883048F4C7708E2D01C058
:103F7000880FCA95EAF70E940F2214C08C2F0E9466
:103F800040182DC00E5F1F4FFE01C49180E28C0FC0
:103F9000883058F4C7708E2D01C0880FCA95EAF793
:103FA0000E9415220E9438221AC08C2F0E94571995
:103FB00016C00E5F1F4FFE01C491CC2381F08FE924
:103FC0009FE00197F1F700C00000C150F6CF0E5FEF
:103FD0001F4FFE01F49003C00E9440188E018F2DE8
:103FE000882309F49FCFEFE9FFE03197F1F700C094
:103FF00000008150F5CFDF91CF911F910F91FF907D
:10400000EF90089508950C9402200E94032060937D
:104010003F027093400280934102909342020C94BD
:10402000291C08950C9405200F931F9300913F02C3
:10403000109140022091410230914202602B712B7D
:10404000822B932B1F910F910C9405200F931F939C
:1040500000913F02109140022091410230914202B2
:1040600060237123822393231F910F910C940520C9
:104070000F931F9300913F02109140022091410243
:104080003091420260277127822793271F910F9159
:104090000C94052008950C944A200E944B206093B4
:1040A0003B0270933C0280933D0290933E020C943D
:1040B000291C60E070E0CB010C944D200F931F93FE
:1040C00041E050E060E070E08A019B0104C0000F15
:1040D000111F221F331F8A95D2F7C901B8011F9102
:1040E0000F910C944D200F931F9341E050E060E03E
:1040F00070E004C0440F551F661F771F8A95D2F7E2
:1041000080913B0290913C02A0913D02B0913E0211
:104110008A019B01082B192B2A2B3B2BC901B801C3
:104120001F910F910C944D200F931F9341E050E08D
:1041300060E070E004C0440F551F661F771F8A952A
:10414000D2F7409550956095709580913B02909183
:104150003C02A0913D02B0913E028A019B010823DE
:1041600019232A233B23C901B8011F910F910C94F5
:104170004D200F931F9341E050E060E070E004C0D9
:10418000440F551F661F771F8A95D2F780913B0217
:1041900090913C02A0913D02B0913E028A019B01A8
:1041A000082719272A273B27C901B8011F910F911A
:1041B0000C944D200F931F9300913B0210913C02F1
:1041C00020913D0230913E02602B712B822B932B6C
:1041D0001F910F910C944D200F931F9300913B0260
:1041E00010913C0220913D0230913E0260237123E8
:1041F000822393231F910F910C944D200F931F93B3
:1042000000913B0210913C0220913D0230913E0210
:1042100060277127822793271F910F910C944D20BF
:10422000089529E0929F800D1124A82FA695A695A8
:10423000A695877051E001C0550F8A95EAF785E091
:10424000A89FD001112420E030E070E0F901EA0FCE
:10425000FB1FEB50FE4F4081CB01022E02C0969512
:1042600087950A94E2F781709927819584278523A1
:10427000842780832F5F3F4F2530310539F708951C
:1042800029E0929F800D1124682F669566956695AA
:10429000982F977085E0689FB001112440E050E0AE
:1042A00080E0FA01E60FF71FEB50FE4F208130E06F
:1042B000092E02C0369527950A94E2F7217033271C
:1042C000042E01C0220F0A94EAF7822B4F5F5F4F42
:1042D0004530510531F70895BF92CF92DF92EF92AA
:1042E000FF920F931F93CF93DF938C01C0903F02F7
:1042F000D0904002E0904102F090420280913B0257
:1043000090913C02A0913D02B0913E02C82AD92A68
:10431000EA2AFB2ACFE1D0E0D701C6010C2E04C067
:10432000B695A795979587950A94D2F780FF07C011
:10433000BC2EB8018C2F0E94500C019719F42197C4
:1043400058F7B12C8B2DDF91CF911F910F91FF90DA
:10435000EF90DF90CF90BF900895CF93DF93EC0163
:104360000E946C21BE010E94500CDF91CF910895F4
:104370001F93CF93DF93EB019091BC01992321F020
:10438000CB010E94AD2113C0882349F0CB010E94CC
:104390006C21182F682FCE010E94112104C0CB017F
:1043A0000E944021182FBE01812F0E94500CDF91E6
:1043B000CF911F91089580914302859585958595AC
:1043C00008958091430287700895909143029770F9
:1043D00081E009F480E0089580916702089590914A
:1043E0006702892B809367020895809590916702F8
:1043F000892380936702089510926702089590912F
:104400006602892B809366020895809590916602DA
:104410008923809366020895109266020895909110
:104420006502892B809365020895809590916502BD
:104430008923809365020895109265020895809102
:104440004402089508950C942222909144029817F2
:1044500021F0809344020C94232208958091440219
:10446000882329F01092440280E00C9423220895BE
:10447000E0911001F0911101809167028083E09139
:104480001001F0911101908180916602892B808347
:10449000E0911001F0911101908180916502892BCA
:1044A000808380914402882381F0E0911001F09193
:1044B00011019081892B80838091100190911101CD
:1044C0000E94212381110E942E228091100190913F
:1044D00011010C94E81608950C946B2298E0899FC2
:1044E00090011124262B209343020E947320809177
:1044F00043028595859585950C946C221092430214
:1045000080E00C946C22209143028095822380935A
:104510004302982F977079F430E0482F082E000C52
:10452000550B2417350739F08595859585950E949B
:1045300094200C947E22089580E090E00E94D32C79
:1045400021E08D3E9E4F09F020E0822F089582E009
:1045500090E00C94C52C83E090E00C94C52C84E092
:1045600090E00C94C52C682F84E090E00C94D92C3A
:1045700086E090E00C94C52C682F86E090E00C94C7
:10458000D92CAB01BC018FE090E00C94EB2CAB017B
:10459000BC0183E190E00C94EB2C60E070E0CB0177
:1045A0000C94C72260E070E0CB010E94C1220C9401
:1045B000CD226DEE7EEF80E090E00E94F72C60E06F
:1045C00082E090E00E94D92C60E083E090E00E94BD
:1045D000D92C10923F021092400210924102109288
:1045E000420260E084E090E00E94D92C60E085E027
:1045F00090E00E94D92C60E086E090E00E94D92CE7
:104600006FEF87E090E00E94D92C40E050E0BA01C3
:1046100088E090E00E94EB2C60E08DE090E00E944A
:10462000D92C40E050E0BA0188E190E00E94EB2CE8
:1046300060E087E190E00E94D92C0C94D2220C9487
:10464000D922FC01329680911C01882331F080919F
:10465000EC0287FF02C09EE101C096E080E091502D
:1046600028F021912223D9F38F5FF9CF08959C017F
:10467000FC0132969FEF80E04191461789F09F3F01
:1046800019F4411101C0982F8F5F8630A9F79F3F21
:1046900039F0F901E90FF11D97FDFA95628308954C
:1046A0000895FC01329608962081261301C01082DD
:1046B0003196E817F907C1F70895262F2695269514
:1046C00026952E3168F4FC01E20FF11D677021E0A0
:1046D00030E001C0220F6A95EAF78281282B2283FD
:1046E0000895262F2695269526952E3170F4FC01E7
:1046F000E20FF11D677021E030E001C0220F6A95E2
:10470000EAF72095828128232283089520911C01B5
:10471000222329F02091EC0227FD0C945D230C94B8
:10472000372320911C01222329F02091EC0227FD40
:104730000C9471230C94512320911C01FC0132969E
:10474000222331F08091EC0287FF02C08EE101C08C
:1047500086E0DF011D928A95E9F7089508950C948B
:10476000AE230E94AF238091F302843009F43CC051
:104770001092690220E488E190E00FB6F894A895C1
:10478000809360000FBE2093600080E00E949E092D
:1047900080E00E94180A0E94571580916A028111D8
:1047A0000AC081E080936A0280918F0281708093B9
:1047B0006B020E9485140E94AF2383B7817F8460BF
:1047C00083BF83B7816083BF7894889583B78E7FDA
:1047D00083BF0FB6F894A89580916000886180939C
:1047E0006000109260000FBE089508950895CF9361
:1047F0000E94F5230E94380F0E94F623C0E08C2F00
:104800000E94E30E892B29F4CF5FCC30C1F780E002
:1048100001C081E0CF91089508950C940C240E946A
:10482000371C0E94ED240E94DC160E94180A109288
:104830006A0280916B0281110E944F150E949714A9
:104840000C940D241F920F920FB60F9211248F9388
:104850009F93AF93BF9380916902811113C08091A0
:10486000E8029091E902A091EA02B091EB02419630
:10487000A11DB11D8093E8029093E902A093EA0282
:10488000B093EB02BF91AF919F918F910F900FBEAC
:104890000F901F90189582E084BD93E095BD9AEF2C
:1048A00097BD80936E0008952FB7F8948091E80229
:1048B0009091E902A091EA02B091EB022FBF089516
:1048C000CF92DF92EF92FF920F931F932FB7F8943E
:1048D0004091E8025091E9026091EA027091EB0286
:1048E0002FBF6A017B01EE24FF248C0120E030E021
:1048F000C016D106E206F30610F4415051099A01A0
:10490000281B390BC9011F910F91FF90EF90DF9089
:10491000CF90089578941F920F920FB60F921124A2
:104920008F939F93AF93BF938091E8029091E90298
:10493000A091EA02B091EB020196A11DB11D8093F6
:10494000E8029093E902A093EA02B093EB02BF91D0
:10495000AF919F918F910F900FBE0F901F90189560
:1049600081E08093E00080E28093D8001092C9003B
:104970008FE19EE40197F1F700C0000087E090EB23
:10498000DC018093FC029093FD02A093FE02B093A1
:10499000FF029CE088E10FB6F894A8958093600030
:1049A0000FBE90936000FFCF0E949C22811102C035
:1049B0000E941F230E94A722809368020E94AF22B8
:1049C00090E09093ED028093EC020E94AB22682F5E
:1049D00070E080E090E00C9412200E949C228111F3
:1049E00002C00E941F230E94B8228093EE02282F4B
:1049F000269530E02430310524F081708660809364
:104A0000EE028091EE0280FF02C0869501C080E038
:104A10000C949E092091EE02822F8695482F50E03B
:104A20004330510544F48F5F982F990F822F817086
:104A3000892B8093EE028091EE0281608093EE02DA
:104A40000E94BC228091EE0286950C949E09809172
:104A5000EE02982F969591F09158990F8170892BBD
:104A60008093EE028E7F91E009F490E08091EE0257
:104A700090FB80F98093EE020E94BC228091EE02AE
:104A800086950C949E098091EE0280FD11C0816094
:104A90008093EE02813019F483E08093EE028091DE
:104AA000EE020E94BC228091EE0286950C949E0933
:104AB00008958091EE0280FF08C08E7F8093EE0201
:104AC0000E94BC2280E00C949E0908958091EE0221
:104AD00080FD0C9459250C9443259091EE02892F6A
:104AE00086958F5F8F779170843028F4880F892B9B
:104AF0008093EE0202C09093EE028091EE028E7FD0
:104B000091E009F490E08091EE0290FB80F98093AF
:104B1000EE020E94BC228091EE0286950C949E09C2
:104B2000843008F083E0880F9091EE029170892B19
:104B30008093EE028E7F91E009F490E08091EE0286
:104B400090FB80F98093EE020E94BC228091EE02DD
:104B500086950C949E0980918C020895089508957D
:104B60000895CF93DF93EC010E948527823011F0E6
:104B70008430D9F580911C01882339F08091EC02B2
:104B800087FF03C060E282E002C068E081E08093BA
:104B9000E9008FEF9091E800815095FD06C095EDFA
:104BA0009A95F1F700008111F5CF8091E80085FF1B
:104BB0001CC080911C01811105C040E050E068E0FC
:104BC00070E003C070E040E050E0CE010E94A227F8
:104BD0008091E8008E778093E80080E2FE01ACE6E9
:104BE000B2E001900D928A95E1F7DF91CF9108959F
:104BF0008091F202811109C00E9437290E949429F4
:104C00008091E20084608093E20008951092F202A5
:104C10000895089508950C940F2442E061EC81E01A
:104C20000E94B12842E261EC82E00C94B1288091AC
:104C3000F502833009F460C030F4813071F08230C5
:104C400009F499C008958A3009F485C08B3009F4BD
:104C50006BC0893009F0A7C020C08091F402813A6E
:104C600009F0A1C08091E800877F8093E8008091DF
:104C7000F8029091F902892B21F460E28CE692E02F
:104C800003C060E080E090E070E00E94ED2780913A
:104C9000E8008B778093E80008958091F4028132D8
:104CA00009F081C08091F8029091F902029708F012
:104CB0007AC08091E800877F8093E8008091E800C7
:104CC00082FD05C08091F3028111F8CF6CC0209164
:104CD000F3008091F20090E0922B029729F48091EA
:104CE000F1008B7F813021F48091F10080938C0260
:104CF0008091E8008B7753C08091F402813A09F0EB
:104D000052C08091F8029091F902892B09F04BC0B2
:104D10008091E800877F8093E8008091E80080FF21
:104D2000FCCF80911C0136C08091F4028132D9F50C
:104D30008091F8029091F902892BA9F58091E80001
:104D4000877F8093E8000E94E6288091F602809396
:104D50001C010C94371C8091F402813221F5809162
:104D6000E800877F8093E8000E94E6288091F702A0
:104D700080938D0208958091F402813AA1F480918C
:104D8000E800877F8093E8008091E80080FFFCCFF7
:104D900080918D028093F1008091E8008E7780935E
:104DA000E8000C94E628089584B7877F84BF0FB687
:104DB000F894A895809160008861809360001092BB
:104DC00060000FBE80E880936100109261000E9435
:104DD0003C170E9437290E9494298091E200846048
:104DE0008093E20078940E94232C0E94441782E171
:104DF00091E00E94D7168091F302853069F40E94F9
:104E0000B1238091F1028823B1F30E94F723882314
:104E100091F30E948C27EFCF0E9450170E945A15E1
:104E2000EACF0C941327292F332723303105C9F0FB
:104E300064F42130310581F02230310509F04CC095
:104E40008BE390E027E031E14BC02132310521F1C5
:104E50002232310589F140C082E190E022E431E163
:104E60003FC099278130910571F02CF4892BA1F571
:104E7000E3E0F1E10DC08230910541F0039761F567
:104E8000E1EEF0E105C0E3EFF0E102C0E7EEF0E1B2
:104E9000849190E09F0124C06115710541F061305B
:104EA0007105D1F489E090E022E331E119C089E095
:104EB00090E029E131E114C06115710541F06130E4
:104EC000710551F48BE390E024E531E109C080E401
:104ED00090E02FE831E104C080E090E020E030E095
:104EE000FA013183208308950895CF93C82F0E943B
:104EF0007427C0938E02CF9108958091F30284307D
:104F000011F081E0089582E0089580918E02811170
:104F100002C00C947D27089580E189BD82E189BD9E
:104F200009B400FEFDCF8091D8008F7D8093D8001A
:104F30008091E00082608093E0008091E00081FD3C
:104F4000FCCF0895CF92DF92EF92FF920F931F93C1
:104F5000CF93DF93EC018B016A010E940529811137
:104F600033C0C114D10439F0F60180819181081B4E
:104F7000190BC80FD91FE12CF12C0115110519F1DE
:104F80008091E80085FD16C08091E8008E778093BF
:104F9000E800C114D10449F0F60180819181E80E46
:104FA000F91EF182E08285E00FC00E940529882366
:104FB00021F30AC089918093F10001501109FFEF9C
:104FC000EF1AFF0ADACF80E0DF91CF911F910F91A6
:104FD000FF90EF90DF90CF9008952091FA023091EA
:104FE000FB022617370748F06115710539F4209147
:104FF000E8002E772093E80001C0B90140E0611578
:105000007105A9F12091F302222309F443C0253050
:1050100009F442C02091E80023FD40C02091E8003F
:1050200022FD32C02091E80020FFE9CF4091F3003B
:105030002091F20030E0342BFC01CF0161157105A5
:1050400059F02830310540F481918093F10061508E
:1050500071092F5F3F4FF1CF41E02830310509F052
:1050600040E02091E8002E772093E800C8CF41115E
:10507000C9CF0AC08091F302882361F0853061F0C6
:105080008091E80083FD0AC08091E80082FFF2CFA2
:1050900080E0089582E0089583E0089581E0089516
:1050A0002091FA023091FB022617370748F061156C
:1050B000710539F42091E8002E772093E80001C0B3
:1050C000B901FC0120E06115710591F18091F302B5
:1050D000882309F440C0853009F43FC08091E8007E
:1050E00083FD3DC08091E80082FD2FC08091E800E3
:1050F00080FFE9CF2091F3008091F20090E0922BA5
:105100006115710559F08830910540F42491209380
:10511000F1003196615071090196F2CF21E00897B4
:1051200009F020E08091E8008E778093E800CBCFF3
:105130002111CCCF0AC08091F302882361F0853021
:1051400061F08091E80083FD0AC08091E80082FF51
:10515000F2CF80E0089582E0089583E0089581E031
:105160000895982F973058F59093E900981739F0E3
:105170007091EC002091ED005091F00003C0242FBD
:10518000762F50E021FF19C03091EB003E7F309325
:10519000EB003091ED003D7F3093ED003091EB005E
:1051A00031603093EB007093EC002093ED0050934E
:1051B000F0002091EE0027FF07C09F5FD3CF8F70D4
:1051C0008093E90081E0089580E008958091F402E1
:1051D00087FF11C08091E80082FD05C08091F30235
:1051E0008111F8CF11C08091E8008B770BC08091BE
:1051F000F302882349F08091E80080FFF8CF809186
:10520000E8008E778093E80008952091E4003091C3
:10521000E50095E64091EC00842F817040FF22C0AC
:105220008091E80080FD1CC08091F302882391F0FA
:10523000853091F08091EB0085FD10C04091E40035
:105240005091E5004217530729F39A01915011F745
:1052500084E0089582E0089583E0089581E0089550
:1052600080E008954091E80042FFDECF08950E945B
:10527000A5290E94AD29E0EEF0E080818160808365
:10528000E8EDF0E080818F77808319BCA7EDB0E076
:105290008C918E7F8C9380818F7E80831092F2021E
:1052A00008950F931F93CF93DF930E94A5290E9427
:1052B000AD29C8EDD0E088818F77888388818068A8
:1052C000888388818F7D888319BC1092F3021092A5
:1052D000EF021092F1021092F00200EE10E0F801DD
:1052E00080818B7F808388818160888342E060E059
:1052F00080E00E94B128E1EEF0E080818E7F808323
:10530000E2EEF0E08081816080838081886080832C
:10531000F80180818E7F8083888180618883DF911E
:10532000CF911F910F910895E8EDF0E080818F7E7D
:105330008083E7EDF0E080818160808384E082BF3C
:1053400081E08093F2020C945129E8EDF0E0808135
:105350008E7F80831092E20008951092DA001092FE
:10536000E10008951F920F920FB60F9211242F9310
:105370003F934F935F936F937F938F939F93AF93DD
:10538000BF93EF93FF938091E10082FF0BC0809168
:10539000E20082FF07C08091E1008B7F8093E100F3
:1053A0000E94222C8091DA0080FF1FC08091D800DB
:1053B00080FF1BC08091DA008E7F8093DA0080919D
:1053C000D90080FF0DC080E189BD82E189BD09B4AB
:1053D00000FEFDCF81E08093F3020E94F82505C016
:1053E00019BC1092F3020E9406268091E10080FF12
:1053F00019C08091E20080FF15C08091E2008E7F8D
:105400008093E2008091E20080618093E2008091CD
:10541000D80080628093D80019BC85E08093F302A5
:105420000E940A268091E10084FF30C08091E20052
:1054300084FF2CC080E189BD82E189BD09B400FEF2
:10544000FDCF8091D8008F7D8093D8008091E100BE
:105450008F7E8093E1008091E2008F7E8093E20056
:105460008091E20081608093E2008091EF028823C6
:1054700011F084E007C08091E30087FD02C081E065
:1054800001C083E08093F3020E940B268091E1002B
:1054900083FF29C08091E20083FF25C08091E10055
:1054A000877F8093E10082E08093F3021092EF0205
:1054B0008091E1008E7F8093E1008091E2008E7FF9
:1054C0008093E2008091E20080618093E20042E0FC
:1054D00060E080E00E94B1288091F00088608093B5
:1054E000F0000E940926FF91EF91BF91AF919F912B
:1054F0008F917F916F915F914F913F912F910F907D
:105500000FBE0F901F9018951F920F920FB60F921B
:1055100011242F933F934F935F936F937F938F93B8
:105520009F93AF93BF93CF93DF93EF93FF93C0917C
:10553000E900CF708091EC00D82FD17080FDD0E8C9
:105540001092E9008091F000877F8093F0007894BA
:105550000E94C82A1092E9008091F0008860809330
:10556000F000CD2BCF70C093E900FF91EF91DF9158
:10557000CF91BF91AF919F918F917F916F915F91EB
:105580004F913F912F910F900FBE0F901F90189544
:105590001F93CF93DF93CDB7DEB7AA970FB6F894DA
:1055A000DEBF0FBECDBFE4EFF2E088E08E0F90913A
:1055B000F10091938E13FBCF0E9417268091E80093
:1055C00083FF28C18091F4029091F502492F50E0A9
:1055D0004A30510508F01EC1FA01E556FF4F0C9400
:1055E000982C803821F0823809F014C108C08091CD
:1055F000F0029091F102992389F082600FC08091AE
:10560000F8028F70873008F005C18093E90080911F
:10561000EB0085FB882780F91092E9009091E80063
:10562000977F9093E8008093F1001092F100D0C032
:10563000282F2D7F09F0EEC0882319F0823061F009
:10564000E9C08091F602813009F0E4C0933009F09E
:1056500080E08093F1022EC08091F60281112AC071
:105660008091F8028F702FEF280F263008F0D2C0FB
:105670008093E9002091EB0020FF1CC0933021F4BF
:105680008091EB00806214C09091EB009061909348
:10569000EB0021E030E0A90102C0440F551F8A95BC
:1056A000E2F74093EA001092EA008091EB008860F4
:1056B0008093EB001092E9008091E800877F80934F
:1056C000E8000E94E628A6C08111A4C01091F6024D
:1056D0001F778091E3008078812B8093E300809195
:1056E000E800877F8093E8000E94E6288091E80028
:1056F00080FFFCCF8091E30080688093E30011116C
:1057000002C082E001C083E08093F30283C080582E
:10571000823008F07FC08091F6029091F7028C3DB4
:1057200053E0950779F583E08A838AE289834FB74E
:10573000F894DE01139620E03EE051E2E32FF0E022
:1057400050935700E49120FF03C0E295EF703F5F54
:10575000EF708E2F90E0EA3010F0C79601C0C0962F
:105760008D939D932F5F243149F74FBF8091E800BF
:10577000877F8093E8006AE270E0CE0101960E9484
:10578000ED2715C06091F8027091F902AE014F5FEC
:105790005F4F0E941127BC01892BE1F19091E80035
:1057A000977F9093E80089819A810E945028809188
:1057B000E8008B778093E8002DC0803859F5809100
:1057C000E800877F8093E8008091EF028093F100EA
:1057D0008091E8008E7773CF81111CC09091F60202
:1057E0009230C0F48091E800877F8093E800909326
:1057F000EF020E94E6288091EF02811106C080919D
:10580000E30087FD02C081E001C084E08093F302E1
:105810000E940D268091E80083FF0AC08091E80075
:10582000877F8093E8008091EB0080628093EB009B
:10583000AA960FB6F894DEBF0FBECDBFDF91CF9111
:105840001F9108950895CF938091F3028823A1F0CA
:10585000C091E900CF709091EC00892F817090FD8C
:1058600080E8C82B1092E9008091E80083FD0E9437
:10587000C82ACF70C093E900CF910895DB018F93C0
:105880009F930E94AD2CBF91AF91A29F800D911D5F
:10589000A39F900DB29F900D11240895AA1BBB1BCE
:1058A00051E107C0AA1FBB1FA617B70710F0A61B20
:1058B000B70B881F991F5A95A9F780959095BC0141
:1058C000CD01089597FB072E16F4009407D077FDBD
:1058D00009D00E944E2C07FC05D03EF4909581958E
:1058E0009F4F0895709561957F4F0895A1E21A2EFC
:1058F000AA1BBB1BFD010DC0AA1FBB1FEE1FFF1F74
:10590000A217B307E407F50720F0A21BB30BE40BC3
:10591000F50B661F771F881F991F1A9469F760950A
:105920007095809590959B01AC01BD01CF010895C4
:10593000EE0FFF1F0590F491E02D0994A29FB00196
:10594000B39FC001A39F700D811D1124911DB29FB3
:10595000700D811D1124911D08950E949E2CA59FFC
:10596000900DB49F900DA49F800D911D112408955A
:10597000FC014150504030F001900616D1F73197AC
:10598000CF010895882799270895F999FECF92BDF0
:1059900081BDF89A992780B50895A6E1B0E044E06A
:1059A00050E00C94FF2CA8E1B0E042E050E00C94F1
:1059B000FF2C262FF999FECF92BD81BDF89A019751
:1059C00000B4021639F01FBA20BD0FB6F894FA9A47
:1059D000F99A0FBE08950396272F0E94DA2C0E9491
:1059E000D92C252F0E94DA2C242F0C94DA2C019626
:1059F000272F0E94DA2C0C94D92CDC01CB01FC015E
:105A0000F999FECF06C0F2BDE1BDF89A319600B417
:0E5A10000D9241505040B8F70895F894FFCF22
:105A1E0001021C1C1C01191A1B1C1D1E1F202122F9
:105A2E004502AB25B125AE25AF25B025019091924B
:105A3E009395949697343733323130C6F0F1F4F5AE
:105A4E00F6F7000102020202060606090909090913
:105A5E00090F0F0F0F0F0F15151518191919191901
:085A6E0019191919192324006C
:00000001FF
