:100000000C9460020C94A7020C94A7020C94A70213
:100010000C94A7020C94A7020C94A7020C94A702BC
:100020000C94A7020C94A7020C9441300C94153147
:100030000C94D42A0C94A7020C94A7020C94A70247
:100040000C94A7020C94A7020C94A7020C94A7028C
:100050000C94A7020C942B2B0C94A7020C94A702CF
:100060000C94A7020C94A7020C94A7020C94A7026C
:100070000C94A7020C94A7020C94A7020C94A7025C
:100080000C94A7020C94A7020C94A7020C94A7024C
:100090000C94A7020C94A7020C94A7020C94A7023C
:1000A0000C94A7020C94A7020C94A70268006900A4
:1000B000AC00AE00AB00A80001000100010001008F
:1000C0000100010001000100010001000100010028
:1000D00000000000000000002A2B280000000000A3
:1000E00000000000000000000000002900000000E7
:1000F0002C1E3420212224342627252E362D373855
:10010000271E1F202122232425263333362E37385D
:100110001F0405060708090A0B0C0D0E0F1011121B
:10012000131415161718191A1B1C1D2F3130232DE7
:10013000350405060708090A0B0C0D0E0F101112E5
:10014000131415161718191A1B1C1D2F3130354C96
:10015000000000000000000000000000000000009F
:10016000000000000000000000000000000000008F
:10017000000000007E0F00D4FFFFFFC700000078E2
:10018000FD377A585A000004E6D6B4460200210131
:1001900016000000742FE5A3E000F900AA5D003D01
:1001A0008889C65436C3174FE4E4678720B2EF3915
:1001B0006CB85B48EDEFAF45C7D8E1A4E6E6D6B72B
:1001C000C9CB33E3FE8991D3F9B5F3B849712E1346
:1001D000AA90AB22B902099251EEF0F4FB96B23428
:1001E000045EB79144C7420667E6499C058F51807B
:1001F00057587AE476CADC9EE11026C3ABCD166967
:1002000010CD876FDF5536FDB085A6AB47F3DE9D79
:100210007A1B09D5914AC6908E3367603DF133D37E
:10022000FA7403746560E58D6DFCD2E8888B253B1C
:10023000A5DC7E7A138E45B4C83E5EF2DE6FED9883
:100240002D6CE2CB5D53C9D300000000BAEAD6FFA3
:10025000AC1A180E0001C601FA010000309C9DD1B5
:10026000B1C467FB020000000004595AAA00A900AB
:10027000010001000100010001000100690300000C
:100280000200020065030000030001006A03000091
:10029000040002004F03A314050001006B030000DB
:1002A000060002005103000007000200670300007F
:1002B000080001006C0300000900020053037E14D3
:1002C0000A00020055037E140B00020057037E143F
:1002D0000C00020059037E140D0002005B037E1423
:1002E0000E0002005D037E140F0002005F037E1407
:1002F0001000020061037E141100020063037E14EB
:10030000120002006D030000130002006F030000E2
:100310001C037600690061006C003A00660036003C
:1003200034006300320062003300630000002203E7
:10033000500069006B0061007400650061002000DE
:100340004D006100630072006F0070006100640086
:10035000000018034A00610063006B005F004B005F
:100360006500730074006500720000000403090456
:1003700009025B00030100A0FA0904000001030167
:100380000100092111010001224000070581030835
:10039000000A090401000203000000092111010004
:1003A0000122220007058203200001070503032024
:1003B00000010904020001030000000921110100ED
:1003C000012281000705840320000A1201100100A8
:1003D000000008495001000100010203010660FF0E
:1003E0000961A1010962150026FF009520750881A9
:1003F000020963150026FF00952075089102C005CB
:10040000010902A10185020901A1000509190129BB
:10041000051500250195057501810295017503817A
:10042000010501093009311581257F950275088183
:100430000609381581257F950175088106050C0A86
:1004400038021581257F950175088106C0C0050118
:100450000980A101850319012AB700150126B700FB
:10046000950175108100C0050C0901A101850419D1
:10047000012AA002150126A002950175108100C075
:1004800005010906A101050719E029E71500250165
:10049000950875018102950175088101050719000C
:1004A00029FF150026FF009506750881000508192B
:1004B000012905950575019102950175039101C00A
:1004C00011241FBECFEFDAE0DEBFCDBF04B603FEBE
:1004D00027C08091820390918303A0918403B091FF
:1004E00085038730904BA740B04BD1F41092820324
:1004F00010928303109284031092850314BE84B774
:10050000877F84BF0FB6F894A895809160008861BA
:1005100080936000109260000FBEE0E0F8E3099560
:1005200011E0A0E0B1E0E6E4F7E602C005900D922C
:10053000AA3AB107D9F723E0AAEAB1E001C01D92B7
:10054000A238B207E1F70E94FB2C0C946F330C9495
:100550000000CF93DF939C013A9521153F4168F548
:10056000EC01CC27D170DC01AA27B270AC01442782
:1005700054709C012227387094FF11C080E1CD2B6C
:1005800009F480E0AB2B09F08062452B09F0806410
:10059000232B09F08068FB01DF91CF91099481E062
:1005A000CD2B09F480E0AB2B09F08260452B09F0DC
:1005B0008460232B81F38860EECFDF91CF91089583
:1005C000CF93DF93EC01805E9109089720F061E3FF
:1005D0007FE1209711F463E27FE1CE010E94A9023E
:1005E0008C2FDF91CF910C94181ECF93DF93EC01E9
:1005F0000E94AA1ECE01805E9109089720F068E350
:100600007FE1209711F46AE27FE1CE01DF91CF9183
:100610000C94A90281E0089581E008950C940C03E4
:1006200008950C9410031F93CF93DF9300D000D054
:100630000F92CDB7DEB749835A836B8330910B029B
:1006400089819A8131111DC06623B9F02223A9F056
:100650000E94A427182F682F89819A810E9445271C
:1006600069817A81812F0F900F900F900F900F90DA
:10067000DF91CF911F910C9465130E947627182F5C
:10068000EFCF0E94A42769817A81EDCFFC01262F4C
:10069000408151816281738184810C941303CF93D3
:1006A000DF93EC0160E00E944603BE01DF91CF9131
:1006B0000C9411038F929F92AF92BF92CF92DF92D0
:1006C000EF92FF920F931F936B017C0181E090E00A
:1006D000A0E0B0E04C015D0104C0880C991CAA1C8C
:1006E000BB1C4A95D2F7B501A4014C015D0104C0C1
:1006F000880C991CAA1CBB1C2A95D2F74829592999
:100700006A297B2904C0880F991FAA1FBB1F0A955D
:10071000D2F78A019B010C211D212E213F210417B4
:1007200015072607370789F48C299D29AE29BF298B
:10073000BC01CD011F910F91FF90EF90DF90CF9002
:10074000BF90AF909F908F90089580959095A095C1
:10075000B0958C219D21AE21BF21EACF0F93382F78
:10076000262F60914B0270914C0280914D02909126
:100770004E02042F432F0E945A030F910C9483269C
:100780000E9420070C9445070E94BD1A0E9446183B
:100790000E947B1B0C94480708950E94551F0E94DD
:1007A000CC032FEF84E39CE0215080409040E1F7A0
:1007B00000C000000C944F2B0F931F93CF93DF9337
:1007C000EC018B010E941B1AB801CE010E94830B21
:1007D000882309F44FC0B801CE010E940E0388237C
:1007E00009F448C0B801CE010E94631A882309F4B5
:1007F00041C0B801CE010E9471188823D9F1B80117
:10080000CE010E94DE1B8823A9F1B801CE010E940F
:100810005C16882379F1B801CE010E94AE168823B8
:1008200049F1B801CE010E94D117882319F1F801CE
:100830008281882361F0CA35FDE5DF0721F170F47C
:10084000C115ECE5DE07A1F0CE3DDC45C9F0C801DD
:10085000DF91CF911F910F910C940A03CB358DE559
:10086000D807A1F0CC35DD4591F70E948228EFCF63
:100870000E94CD0380E0DF91CF911F910F910895E9
:100880000E942D2AF7CF0E948B28E1CF0E948E284C
:10089000DECFCF93DF93EC0161E00E944603BE01FF
:1008A000DF91CF910C94DC03DF92EF92FF920F93D4
:1008B0001F93CF93DF93E82FF0E0E053FF4FD490E6
:1008C000282F26952695269530E0F901E059FE4F10
:1008D0000491877010E0082E02C0159507950A94C0
:1008E000E2F701701127F901E05AFE4FE490F12C74
:1008F000082E02C0F594E7940A94E2F791E0E92209
:10090000FF24F901E05BFE4FC491D0E002C0D59511
:10091000C7958A95E2F7C170DD270115110519F019
:1009200081EE0E94181EE114F10419F086EE0E9477
:10093000181E8D2D0E94171FEF2819F086EE0E94B9
:10094000AA1E012B19F081EE0E94AA1ECD2B51F098
:100950008CE2DF91CF911F910F91FF90EF90DF908C
:100960000C94171FDF91CF911F910F91FF90EF9083
:10097000DF900895EF92FF920F931F93CF93DF9331
:10098000EC01162F0AE08881882309F454C08130D5
:1009900009F04EC08981813099F47E0122E0E20E97
:1009A000F11C8A810E94171FE7012196812F815037
:1009B00050F3EFE9FFE03197F1F700C00000F7CF07
:1009C000823041F47E0182E0E80EF11C8A810E94AF
:1009D000181EEACF833041F47E01E2E0EE0EF11CF6
:1009E0008A810E94AA1EE0CF843011F02196DDCFCB
:1009F0002A81229690E080E0AE014F5F5F4F205346
:100A0000330B2A30310548F0019778F2EFE9FFE027
:100A10003197F1F700C00000F7CF089FB001099FA0
:100A2000700D1124C901860F971F2981EA01E4CFB7
:100A30000E945404BACFDF91CF911F910F91FF9084
:100A4000EF90089560E00C94BA0408950C94250585
:100A500081E008950C942805CF93C82F0E942605A5
:100A60008C2FCF910C942A05CF93DF930E946513AE
:100A70000E942E06EC01811521E5920708F042C084
:100A8000811530E5930708F09DC0883E910530F54B
:100A9000803E910508F092C0883A910588F4853A25
:100AA000910508F084C08130910509F487C0009752
:100AB00009F484C0049708F081C0D0E0C0E07EC093
:100AC0008F3B9105D0F7C85AD0E0CC0FDD1FCE5D2B
:100AD000DE4F0990D881C02DD46470C0811590423A
:100AE00050F4C11581E0D80708F068C0C03FD105B7
:100AF00020F3D06563C0C11590E4D907F0F2DF7030
:100B0000D06A5CC0811525E5920700F5811534E5B2
:100B1000930708F08BC0811543E5940708F073C074
:100B2000C11582E5D80708F469C0CE018370992702
:100B300021E030E002C0220F331F8A95E2F7C6950C
:100B4000C69580E2C89FE001112454C0C11599E503
:100B5000D907A8F4C11528E5D20708F06CC0C11563
:100B600036E5D30708F0A9CF8C2F0E94C506C82F01
:100B7000D0E0DC2FCC27CC27DF71D0621FC0C1159D
:100B80004AE5D40708F45CC0CE0190568115904226
:100B900008F093CF8D2F8F710E94C50690E0982F9B
:100BA000882788279F719C012C2BE901E6CFC55A25
:100BB000D0E0C05BDE4FC881D0E0D064CE01DF91D1
:100BC000CF910895E4E096958795EA95E1F78370D3
:100BD0002C2F26952695237040E2249F9001112406
:100BE000382B8C2F8370C1E0D0E002C0CC0FDD1F0A
:100BF0008A95E2F7C22BD32BDC68E0CFDC2FCC2721
:100C0000C16FD06ADBCF8370992721E030E002C04A
:100C1000220F331F8A95E2F7C695C69590E2C99FC9
:100C2000E0011124C22BD32BDA68C8CFD82FCC27F0
:100C3000C46FD06AC3CFDC2FCC27C06FD06ABECFC1
:100C40008C2F8F700E94C50634E0D695C7953A95D3
:100C5000E1F7CF709C2FEC01D069B0CF82389105BD
:100C6000B1F1B0F48133910509F475C048F48932CB
:100C7000910509F469C08A32910509F473C0089599
:100C80008533910509F459C08933910501F108951F
:100C9000833E9105A9F138F4803E9105F9F0823E3A
:100CA000910549F10895863E9105A9F1873E910588
:100CB000C9F1843E910519F52091720221FF1FC0F0
:100CC0008091710284FD14C087EE90E00895209118
:100CD00071022370A1F080EE90E0089520917102DE
:100CE00020FD47C03091720230FF09C024FF44C08C
:100CF00090E080E004C02091710222FDF7CF0895BA
:100D00002091710222FD3BC03091720230FDE3CF91
:100D100024FFF5CFEDCF2091710223FFF0CF24FD0A
:100D2000E7CFD2CF2091710223FD2CC03091720207
:100D300031FFEECF84EE90E008952091710225FFFF
:100D4000DECF89E290E008952091710225FFD7CF90
:100D500085E390E008952091710226FFD0CF8AE2CA
:100D600090E008952091710226FFC9CF81E390E0C1
:100D7000089589E390E0089583EE90E0089582EE6F
:100D800090E0089586EE90E008959091710292FFB0
:100D900006C0282F28712830F9F4877F846093FFDC
:100DA00006C0282F28712831F1F4877E84612091B4
:100DB000720220FF06C0382F38713830D9F4877F8F
:100DC000816021FF06C0282F28712831D1F4877E49
:100DD000816194FD877E0895282F24712430F9F6CF
:100DE0008B7F8860DCCF282F2471243101F78B7E24
:100DF0008861DDCF382F3171313019F78E7F8860EF
:100E0000E0CF282F2171213121F78E7E8861E1CF3B
:100E10000C945D0B0E94A2078FE39CE90197F1F708
:100E200000C000000E94A20780E00E945E0780FFD1
:100E300004C00E9408070C944F2B08950C940A07D5
:100E40000E948829811102C00E942D2A0E949329A4
:100E5000809365020E949B29909372028093710295
:100E60000E941E070E949729682F70E090E080E0A2
:100E70000E94472660914B0270914C0280914D0276
:100E800090914E020C94812608950C944407089585
:100E90000C944707E82FF0E0EC58FD4F208130E03C
:100EA00081E090E002C0880F991F6A95E2F728233D
:100EB000392381E0232B09F480E00895E82FF0E046
:100EC000EC58FD4F80810895089580EA8A95F1F7E6
:100ED000089500C008950C946507F894E82FE295F2
:100EE000EF70F0E031A1282F2F7081E090E001C079
:100EF000880F2A95EAF7982F9095932391A392A1B2
:100F0000892B82A37894089587EF0E946D0786EC61
:100F10000E946D0786E60E946D0785E30E946D07BB
:100F200084E30E946D0787E90E946D0781E90E94B2
:100F30006D07109273021092740281E00E94E7071D
:100F40000C94C003CF93F894879A8F9878940E945A
:100F50006907A3E5B1E030E020E0C0E051E04D9149
:100F6000E42FE295EF70F0E080A190E04F7002C0B6
:100F7000959587954A95E2F780FD25C0852F022E2D
:100F800001C0880F0A94EAF7C82B2F5F3F4F263025
:100F9000310529F787EF0E946D070E946B0780914A
:100FA0007302C81791F0C0937302C1E02C2F41E087
:100FB00064E772E083E792E00E94E8070E94C403BE
:100FC0008C2FCF91089580E0DFCFC0E0EFCF089560
:100FD000FF920F931F93CF93DF93F82E092F162FB5
:100FE000D72FC42F222349F081E08093AE010E94C5
:100FF000042B9093AD018093AC018091AE018823C6
:10100000A1F08091AC019091AD010E941C2B06973C
:1010100060F0EF2DF02FA12FBD2FCE0FDF2FD11DB0
:10102000EC17FD0741F41092AE01DF91CF911F91B3
:101030000F91FF90089581918D93F2CF8091B5012A
:10104000609157037091580380FF16C020910501ED
:10105000269FC001279F900D1124BC0176956795AE
:10106000769567956038710508F043C06115710584
:1010700009F441C0862F089581FF0BC0209105011E
:10108000269FC001279F900D1124BC01769567957E
:10109000E9CF82FF09C0809105019B01829FB001C9
:1010A000839F700D1124DECF2091B4012223D1F251
:1010B0009091040180910501482F50E0291748F0D4
:1010C000CB01849FB001859F700D949F700D1124FA
:1010D000C9CF289F90011124269FA001279F500D62
:1010E000369F500D1124692F70E0CA010E94C7324B
:1010F000B9CF8FE7089581E008958091B50180FF11
:101100000CC06091010170E07595679575956795C4
:101110006115710549F1862F089581FF06C0609120
:10112000010170E075956795F3CF6091010182FD33
:101130000BC09091B3019923A1F0609100018091BF
:101140000101961738F0682F70E06038710500F3E0
:101150008FE70895899FC001112470E00E94DB325F
:10116000F4CF61E070E0D7CF81E00895803F31F4A3
:101170000E941E0881958093B9010895813F19F45A
:101180000E941E08F8CF823F31F40E941E0881950C
:101190008093B8010895833F19F40E941E08F8CF88
:1011A000893F29F40E947D088093BA0108958A3FFF
:1011B00021F40E947D088195F7CF8B3F31F40E9486
:1011C0007D0881958093BB0108958C3F19F40E949E
:1011D0007D08F8CF843F31F48091B701816080931E
:1011E000B7010895853F21F48091B7018260F7CF60
:1011F000863F21F48091B7018460F1CF873F21F4CD
:101200008091B7018860EBCF883F21F48091B701CE
:101210008061E5CF8D3F31F48091B501816080938D
:10122000B50108958E3F21F48091B5018260F7CF1A
:101230008F3FB9F78091B5018460F1CF9091B801EB
:10124000803F59F48091B90187FF0DC01092B90118
:1012500091110BC01092B40108C0813F81F48091BC
:10126000B90118169CF3992381F08091BA019091ED
:10127000BB01892B09F064C01092B3010895823F2D
:1012800049F497FFF0CF1092B8018091B901811114
:10129000ECCFE0CF833F19F41916ACF3E4CF2091E3
:1012A000BA01893F29F41216F4F61092BA01DBCF85
:1012B0008A3F19F427FFD7CFF8CF2091BB018B3F8E
:1012C00029F427FFD0CF1092BB01CDCF8C3F19F46A
:1012D0001216CCF3C8CF843F31F48091B7018E7FD2
:1012E0008093B701C0CF853F21F48091B7018D7FF6
:1012F000F7CF863F21F48091B7018B7FF1CF873FF5
:1013000021F48091B701877FEBCF883F21F4809152
:10131000B7018F7EE5CF8D3F31F48091B5018E7F8F
:101320008093B501A0CF8E3F21F48091B5018D7FD0
:10133000F7CF8F3F09F097CF8091B5018B7FF0CF2A
:1013400008950E94042B9C019091B8018091B901ED
:10135000982B21F03093B2012093B1019091BA0102
:101360008091BB01982B21F03093B0012093AF0105
:1013700086EB91E00C949C1CEF92FF920F931F93CD
:10138000CF93DF9300D000D000D0CDB7DEB786E09A
:10139000E6EBF1E0DE01119601900D928A95E1F7FE
:1013A000E090B801F090B9010091BA011091BB0131
:1013B0001092B8011092B9011092BA011092BB01BB
:1013C0008E2D8F2991F08091B1019091B2010E94F0
:1013D0001C2BAC019091B401992309F43FC080917A
:1013E00006018417150608F447C0802F812B91F061
:1013F0008091AF019091B0010E941C2BAC019091A3
:10140000B301992309F477C080910201841715066E
:1014100008F47FC08091B8019091B901892B909117
:10142000BA01892B9091BB01892B11F00E94A1096F
:1014300086E0FE013196A6EBB1E001900D928A950F
:10144000E1F726960FB6F894DEBF0FBECDBFDF9151
:10145000CF911F910F91FF90EF9008952091070178
:101460008AE0289F900111242417350708F0BDCF8A
:101470009F5F9093B40102C09F3FD1F7EE2059F0D7
:101480000E941E089FEF1E140CF491E0899F802D8E
:1014900011248093B801FF2059F00E941E089FEF8D
:1014A0001F140CF491E0899F802D11248093B901C1
:1014B0003091B801332309F498CF2091B901222348
:1014C00009F493CF45EB3403C0011124992359F05B
:1014D0009093B80145EB240390011124332339F094
:1014E0003093B90182CF81E08093B801F3CF81E0DE
:1014F0008093B9017ACF209103018AE0289F90015F
:1015000011242417350708F085CF9F5F9093B3010E
:1015100002C09F3FD1F7002359F00E947D089FEF42
:1015200010160CF491E0899F802D11248093BA014C
:10153000112359F00E947D089FEF11160CF491E0E1
:10154000899F802D11248093BB013091BA013323F0
:1015500009F460CF2091BB01222309F45BCF45EB56
:101560003403C0011124992359F09093BA0145EB3B
:10157000240390011124332339F03093BB014ACF67
:1015800081E08093BA01F3CF81E08093BB0142CF29
:1015900086E0E6EBF1E0DF011D928A95E9F7109213
:1015A000B4011092B3011092B501089554985C9A59
:1015B0005098589A89B182958170489905C090E0F9
:1015C000892B8093BE01089592E0FACFE091BE018D
:1015D000EE0FEE0FE093BE0129B124FB882780F9BE
:1015E000489937C020E0822BE82BE093BE01EF70D2
:1015F000F0E0E75AFE4F80819091BD01890F809302
:10160000BD0120E0843054F08091BC018F5F809355
:10161000BC0160E080E00E94811021E08091BD016A
:101620008D3F54F48091BC0181508093BC0161E0F6
:1016300080E00E94811021E08091BD01082E000C05
:10164000990B64E070E00E94DB328093BD01822F31
:10165000089522E030E0C7CF83E290E00E94253376
:10166000803189F484E290E00E9425338E3A59F467
:1016700085E290E00E94253391E0803509F090E00A
:10168000892F8170089580E0FCCFCF93C82F6FEF32
:10169000811160E183E290E00E9433336FEFC1116A
:1016A0006EEA84E290E00E9433336FEFC11160E58F
:1016B00085E290E0CF910C94333380E00E94450B9B
:1016C0000C948229089586E290E00E942533682FC9
:1016D00070E090E080E0089586E290E00C9433336F
:1016E0000E94620B0E942C0B81110CC060E070E024
:1016F000CB010E946C0B0E9420120E94D81381E043
:101700000C94450B0895CF93FB01C281CC2309F1C2
:101710009C0122513F452031310520F582510E9424
:10172000E813C0E08C2FCF91089581E00E94A92694
:1017300043E062E081E00E94AE03F3CF81E00E94CB
:10174000CA2643E062E081E00E94AE03EBCF82E074
:10175000F6CF8031FFE59F0789F381319F45B9F3CB
:10176000C1E0E0CF8031EFE59E07F9F281319F457E
:10177000C9F682E0DBCF2FEFFC01208308951F9391
:10178000CF93DF93EC01162F88812091D501309102
:10179000D601232B79F08E3F09F06DC0898183300B
:1017A00020F08550833008F066C0612FCE010E9482
:1017B000C30E61C08B3009F4DDC0D0F4843009F46D
:1017C0007BC060F4823009F446C008F068C0813004
:1017D000F1F1612FCE010E94BB0B4DC0863009F4A0
:1017E00081C008F474C08A30A0F78FEF888343C0AB
:1017F000803109F497C000F58D3009F47AC008F4FF
:1018000074C08E3009F47DC08F3019F78091D701F4
:101810009091D801892B79F16B8170E06D31710560
:1018200050F589819A81AE014C5F5F4F98278927D7
:1018300098270E94AD131FC0823109F479C008F4C3
:1018400074C0833109F485C08E3F19F6AECF19827A
:1018500089E08A8310C089818230A1F08330A9F0A9
:10186000813009F0B6CF0E94102B0E94F5326A83B6
:101870007B838C839D83612FCE01DF91CF911F915C
:101880000C94F02B0E94630BF0CF8091D7019091C4
:10189000D801892B81F380E00E945E07DACF89812D
:1018A000823009F096CF6A817B818C819D810E9474
:1018B000F5320E946C0BDFCF4B816A8189810E94D7
:1018C00009119827892798279D838C83D4CF2C8151
:1018D0003D813227232732274B816A8189810E94EB
:1018E0003311C9CF0E942012C6CF0E948113898371
:1018F000C2CF0E9483139827892798279A838983C8
:10190000BACF6B8170E06D31710508F0B4CF898179
:101910009A81AE014C5F5F4F9827892798270E94D4
:101920008613A9CF0E94D813A6CF0E940711DFCF3C
:101930006B8170E06D31710508F09DCF89819A81CE
:10194000AE014C5F5F4F9827892798270E94B012FD
:1019500092CF6B8170E06D31710508F08CCF898179
:101960009A81AE014C5F5F4F9827892798270E9484
:10197000D51281CF8091D7019091D801892B09F49C
:101980007ACFCE010E94F02B2FEF81EE94E0215010
:1019900080409040E1F700C000000E944F2B6BCFC9
:1019A0008F929F92AF92BF92CF92DF92EF92FF926F
:1019B0000F931F93CF93DF93CDB7DEB72A970FB660
:1019C000F894DEBF0FBECDBF05E712E0F12CE12C8D
:1019D0008AEFC82E8DE0D82E94E2A92E9EE0B92E73
:1019E00025E5822E2DE0922EF801D182C082B382AD
:1019F000A28295828482F58AE48ABE016F5F7F4F5E
:101A00008E2D0E94D011892B29F489859A85F801A1
:101A1000938B828BFFEFEF1AFF0A0A5E1F4F88E05D
:101A2000E816F10409F72A960FB6F894DEBF0FBE48
:101A3000CDBFDF91CF911F910F91FF90EF90DF907D
:101A4000CF90BF90AF909F908F900895CF93DF93EA
:101A500000D000D00F92CDB7DEB790934E038093A5
:101A60004D03811520E2920748F40F900F900F90DC
:101A70000F900F90DF91CF910C94F5028EEF898338
:101A80008A831B820E94042B8160782F9D838C8324
:101A900049815A816B818D810F900F900F900F902B
:101AA0000F90DF91CF910C94BC1D0F931F93CF9398
:101AB000DF938C01EB016FEB71E08C2F0E94D01152
:101AC000892BA1F480916D0390916E03019798F496
:101AD000DD27C753DE4F8881F801108218828330DA
:101AE00041F180F4813091F08230B9F0DF91CF91F3
:101AF0001F910F910895EFE9FFE03197F1F700C0D2
:101B00000000E4CF8430D1F0853081F78091BF01AF
:101B10009091C001009751F306C08091C10190914E
:101B2000C201009799F3DF91CF911F910F910C940F
:101B3000260D8091C3019091C401F3CF8091C5011E
:101B40009091C601009779F72091BF013091C001B3
:101B50008091C1019091C20121153105D9F2009700
:101B600011F7C901E0CFCF93DF9300D000D00F92DF
:101B7000CDB7DEB790934E0380934D03811520E2DD
:101B8000920748F40F900F900F900F900F90DF91F5
:101B9000CF910C94E0028EEF89838A8381E08B835E
:101BA0000E94042B8160782F9D838C8349815A8108
:101BB0006B818D810F900F900F900F900F90DF91A0
:101BC000CF910C94BC1DCF93DF93EC010E94B30D19
:101BD00080916D0390916E03019728F4CE01DF91FF
:101BE000CF910C94260DEFE9FFE03197F1F700C09B
:101BF0000000F2CF0F931F93CF93DF938C01862FBA
:101C00006FEB71E00E94D011892BC9F4C091BF0124
:101C1000D091C001209799F0F8018081833069F458
:101C2000CE010E94E30DCE010E94E30DCE01DF91B3
:101C3000CF911F910F910C94E30D8430B8F7DF9191
:101C4000CF911F910F9108950F931F93CF93DF931F
:101C50008C01EB016FEB71E08C2F0E94D011892B6E
:101C600009F064C0FE01FF27D8018C91E753FE4FB5
:101C70008130D9F419969C911997992311F080839A
:101C80000CC01A969C919923D1F382E080838091B5
:101C9000C1019091C2010097D9F48091BF01909148
:101CA000C001009709F442C013C08230E9F51996CB
:101CB0008C91199781112DC01A968C9181110EC0AB
:101CC00083E080838091C3019091C401009719F152
:101CD000DF91CF911F910F910C94B30D84E080831D
:101CE0008091C5019091C601009791F78091BF0145
:101CF0009091C0010097F9F00E94E30D8091C1011D
:101D00009091C201009721F78091BF019091C0018D
:101D1000DFCF85E080838091BF019091C001009763
:101D200029F00E94E30DF0CF86E08083DF91CF9110
:101D30001F910F9108958091C1019091C201B1CF7F
:101D40000E94D00CE5E2F3E01182108281E090E085
:101D50009683858382E090E09387828783E090E09A
:101D6000908B878784E090E0958B848B85E090E072
:101D7000928F818F86E090E0978F868F87E090E04A
:101D800094A383A30895CF92DF92FF920F931F93A2
:101D9000CF93DF93CDB7DEB72A970FB6F894DEBFA7
:101DA0000FBECDBF8C01603269F5DC011196EC915C
:101DB0001197EE3038F5F0E0EF58FC4C0C94EF3210
:101DC00088E0EAE1F1E0DE01119601900D928A953A
:101DD000E1F780E2F80111928A95E9F784E0D801F1
:101DE0008C9311961C92119712961C92129713962F
:101DF0001C92139788E0FE013196149601900D9283
:101E00008A95E1F72A960FB6F894DEBF0FBECDBFD4
:101E1000DF91CF911F910F91FF90DF90CF900895A8
:101E20008CEEF8018083118212821382EBCF13961D
:101E30008C911397682F70E0762F662712968C91FD
:101E4000860F972F911D092E000CAA0BBB0B45E0A6
:101E5000880F991FAA1FBB1F4A95D1F7AC01BD017E
:101E6000405E5F4F6F4F7F4F481759076A077B07E8
:101E700048F28C3E9105A105B10520F64D3E510575
:101E80006105710520F04CEE50E060E070E0481B09
:101E9000590BBC0160587E4FC8010E94FC32B2CF82
:101EA000FC01F280D38040E06D2D8F2D0E946311E4
:101EB000982789279827D8018D939C9341E06D2D11
:101EC0008F2D0E946311982789279827F801938303
:101ED000828398CF15962D913C9116973227232710
:101EE000322714964C91149713966C91139712966F
:101EF0008C910E948E1186CF40E250E06FEF70E02F
:101F00000E940E338091D701F80180838091D50122
:101F10008183128281E08383148285E0858372CF7E
:101F200081E090E09093D6018093D50182E390E028
:101F30009093D4018093D3010E94042B9093D201FB
:101F40008093D1015FCF8091D5019091D601892BEB
:101F500091F161E080E00E944A07D82E65E080E0C0
:101F60000E944A07F82E8091D1019091D2010E94DF
:101F70001C2B8536910568F1DD2059F1FF2049F1D0
:101F80000E94042B9093D2018093D1018091D301C0
:101F90009091D40101979093D4018093D301892B20
:101FA00051F41092D6011092D50181E090E0909307
:101FB000D8018093D7018091D701D8018C9380916B
:101FC000D50111968C9311978091D30112968C9321
:101FD00019CF82E390E09093D4018093D301EBCFAB
:101FE0001092D8011092D7010DCF40E250E0BC0111
:101FF000FC01828193810E942B1504CFBC016F5F8D
:102000007F4F4FE150E012968D919C910E945D159B
:10201000F8018083F7CEBC016C5F7F4F4CE150E04C
:1020200012968D919C910E948515F2CF0E94EA1420
:10203000E9CE12968C9112978230F1F1E8F4882360
:1020400089F1813009F0DECEF80183812AE0F22E99
:102050009E012F5F3F4F6901D901EF2D1D92EA9537
:10206000E9F7B9010E94D011D8018D93F6010190D2
:102070000D92FA94E1F7C6CE833099F1843009F0DD
:10208000C1CE13968C919AE0F8013496DE01119638
:1020900001900D929A95E1F7BE016F5F7F4F0E940C
:1020A0000C12B6CF80E2F80111928A95E9F788E028
:1020B0008C9311968C93A6CE13968C919AE0F8018E
:1020C0003496DE01119601900D929A95E1F7BE01CA
:1020D0006F5F7F4F0E94E411F80180830E94D00C53
:1020E00091CE13968C919AE0F92EFE0131966F01F4
:1020F000DF01EF2D1D92EA95E9F7B6010E94F81174
:10210000B3CFAF92BF92CF92DF92EF92FF920F9335
:102110001F93CF93DF93B82EA62EC0904B02D09082
:102120004C02E0904D02F0904E0280914F0290914F
:102130005002A0915102B0915202C82AD92AEA2A2B
:10214000FB2ACFE1D0E0D701C6010C2E04C0B69522
:10215000A795979587950A94D2F780FF20C04A2DBE
:102160006B2D8C2F0E9463118C0181309105B9F089
:102170000E94B30D8FE39CE90197F1F700C00000C6
:10218000C8010E94260D81E0DF91CF911F910F9130
:10219000FF90EF90DF90CF90BF90AF900895219780
:1021A00090F64A2D6B2D80E00E946311EC010E9495
:1021B000B30D8FE39CE90197F1F700C00000CE0159
:1021C000E0CF1F93CF93DF93CDB7DEB72A970FB63B
:1021D000F894DEBF0FBECDBF162FBE016F5F7F4FDD
:1021E0000E94F811892B31F489859A85112361F0B9
:1021F0000E94B30D2A960FB6F894DEBF0FBECDBF76
:10220000DF91CF911F9108950E94260DF3CF83E0B7
:1022100008950F931F93CF93DF93833008F56111D7
:102220001FC04630E8F4042F10E0000F111F2CE00F
:10223000829F000D111D1124C80187960E9425332D
:10224000C82FD0E0DC2FCC27C80188960E94253308
:102250009E01282BC901DF91CF911F910F91089505
:1022600090E080E0F8CF0F931F93CF93DF93890125
:10227000833020F5611122C0463000F521153C4520
:1022800031F42091D7013091D801232BB9F0C42F1C
:10229000D0E0CC0FDD1F9CE0899FC00DD11D112423
:1022A000612FCE0187960E943333602FCE0188962E
:1022B000DF91CF911F910F910C943333DF91CF9128
:1022C0001F910F9108950F931F93CF93DF93833046
:1022D00010F5611120C04230F0F424E0829F8001AB
:1022E000112450E0440F551F040F151F055B1F4FAD
:1022F000C8010E942533C82FD0E0DC2FCC27C801AD
:1023000001960E9425339E01282BC901DF91CF91B0
:102310001F910F91089590E080E0F8CF0F931F93E5
:10232000CF93DF938901833028F5611123C04230B8
:1023300008F521153C4531F42091D7013091D801A1
:10234000232BC1F094E0899FE001112450E0440F59
:10235000551FC40FD51FC55BDF4F612FCE010E94F3
:102360003333602FCE010196DF91CF911F910F91F2
:102370000C943333DF91CF911F910F9108958232E6
:10238000910520F4895A9F4F0C94253380E00895DD
:102390008232910520F4895A9F4F0C94333308956B
:1023A0009B01883070F49AE0899FB001112467582E
:1023B0007F4F4AE050E0C9010E94153390E080E071
:1023C00008958FEF9FEF08959B01883070F49AE095
:1023D000899FB001112467587F4F4AE050E0C9013E
:1023E0000E94573390E080E008958FEF9FEF0895AB
:1023F0009B01883070F49AE0899FB00111246753E3
:102400007F4F4AE050E0C9010E94153390E080E020
:1024100008958FEF9FEF08959B01883070F49AE044
:10242000899FB001112467537F4F4AE050E0C901F2
:102430000E94573390E080E008958FEF9FEF08955A
:102440008F929F92AF92BF92CF92DF92EF92FF92C4
:102450000F931F93CF93DF93CDB7DEB764970FB67B
:10246000F894DEBF0FBECDBFE090D701F090D80149
:1024700081E090E09093D8018093D7018CE6C82E3C
:1024800082E0D82E9CEAA92E90E0B92E10E04501FA
:1024900000E0F40125913491402F60E0812F0E94EB
:1024A000331182E0880E911C0F5F063091F7F60120
:1024B0002591349140E060E0812F0E948E11F60159
:1024C00032962591349141E060E0812F0E948E1177
:1024D00094E0C90ED11C1F5FECE0AE0EB11C1330AE
:1024E000B1F60E94EA141C861B861E861D86188A79
:1024F0001F861A8A198A88EC90E09C8B8B8B10E0DF
:10250000BE01655F7F4F812F0E94E4111F5F18306D
:10251000B9F7CE0101966C018AE0F60111928A9515
:10252000E9F710E0B601812F0E940C121F5F1830EE
:10253000C9F7F092D801E092D70164960FB6F894EB
:10254000DEBF0FBECDBFDF91CF911F910F91FF90E6
:10255000EF90DF90CF90BF90AF909F908F900895B5
:10256000EF92FF920F931F93CF93DF93EC018A01B9
:102570007C01E60EF71ECE018796CE15DF0539F4F5
:10258000DF91CF911F910F91FF90EF900895C4328A
:10259000D10540F40E942533F80180830F5F1F4F5F
:1025A0002196E9CFF8011082F9CF4F925F926F9296
:1025B0007F928F929F92AF92BF92CF92DF92EF92D3
:1025C000FF920F931F93CF93DF93EC017B018A015E
:1025D0008497D8F484E290E08C1B9D0B86179707B4
:1025E000A0F03E0127E2620E711C8091D70190910C
:1025F000D8012E01460E571E892BC1F07E01C7015E
:102600008796E414F50409F050C0DF91CF911F9133
:102610000F91FF90EF90DF90CF90BF90AF909F9081
:102620008F907F906F905F904F9008956E0131E092
:10263000C322DD24C0FF0FC0CE0186960E94253341
:10264000F801908189279827892781159C4519F4DD
:102650008FEFF8018083570140FE13C0F1E0AF1AFD
:10266000B10848018A0C9B1CC3018E0D9F1D0E945E
:102670002533F401908181159C4519F48FEFF40105
:102680008083F801EC0DFD1D2FEFCA14DB0408F068
:10269000B5CF9081818181159C4511F420832183E0
:1026A00082E0C80ED11C3296F0CFE4E2EE16F104BF
:1026B00040F4F701EC1BFD0BE00FF11F60810E945D
:1026C0003333FFEFEF1AFF0A9ACF462F2091D5013F
:1026D0003091D601232B91F47E3F39F46E3F71F493
:1026E00080914D0390914E030895833038F4711119
:1026F00005C0663018F460E00C94091190E080E0A9
:10270000089580E1089587EE92E00895EF92FF9298
:102710000F931F93CF93DF93EC018A017C01E60EA8
:10272000F71ECE01875E9E4FCE15DF0539F4DF918F
:10273000CF911F910F91FF90EF900895C73E22E037
:10274000D20740F40E942533F80180830F5F1F4FAA
:102750002196E7CFF8011082F9CFCF92DF92EF9266
:10276000FF920F931F93CF93DF937C016A018C013B
:10277000060F171FEC01CE01875E9E4FC017D107D1
:1027800049F4DF91CF911F910F91FF90EF90DF906F
:10279000CF900895C73E22E0D20740F4FE01EE1923
:1027A000FF09EC0DFD1D60810E9433332196E3CFBC
:1027B000CF93DF93C9E1D1E060E0CE010E943333D3
:1027C0002196C11584E0D807B9F7DF91CF9108951C
:1027D000BF92CF92DF92EF92FF920F931F93CF930E
:1027E000DF9300D000D0CDB7DEB7F82E2FE028174A
:1027F00040F08FEF93E00E94253309E111E0882338
:10280000D1F00F900F900F900F90DF91CF911F910B
:102810000F91FF90EF90DF90CF90BF90089501153A
:1028200044E0140771F3C8010E942533811101C0EF
:10283000FA940F5F1F4FF110F2CF19821A821B8298
:102840001C82BB24BA9478015FEFE51AF50AC8012F
:102850000E94253389831A82882399F2813009F0F6
:1028600047C0680182E0C80ED11CC7010E94253311
:10287000E82E8A83882329F2C6010E942533F82E88
:102880008FEF8E0D833068F46801E3E0CE0ED11C2B
:10289000FB82FF2021F0CE0101960E9422058601D5
:1028A000D2CFF4E0EF12FBCF680124E0C20ED11CBE
:1028B000C80103960E942533FF2009F4A2CF882384
:1028C00009F49FCF8150990BB89E9001B99E300DAD
:1028D00011244F2D4150550BCA01820F931F0197B0
:1028E000F0F2EFE9FFE03197F1F700C00000F7CF19
:1028F000CE0101960E9422056701D1CFEFE4F3E0FB
:10290000848195812AE030E0B9010E94C73260934A
:102910000701868180930601828580930501848565
:102920008093040186859785B9010E94C732609320
:102930000301808980930201828980930101848947
:1029400080930001089580914F03909150030C945F
:10295000B01B0F931F93CF93DF930FE413E0D0E0EE
:10296000C0E0CE010E94BF11F80161918F0186176E
:1029700019F0CE010E94C8112196C232D10589F703
:10298000DF91CF911F910F9108950F931F93CF93D4
:10299000DF930FE413E0D0E0C0E0CE010E94BF114E
:1029A000F80181938F012196C232D105B1F7CEE7AC
:1029B000D2E0FE0185919491009711F0FC010995F8
:1029C0002896F3E0C631DF07A1F7DF91CF911F9181
:1029D0000F910895EFE4F3E0128E138E8FEA90E0EA
:1029E0009183808385E0848F88E893E19383828359
:1029F0002CE231E03583248382E390E09783868361
:102A000085E090E0918780878AE090E093878287D5
:102A100044E150E0558744873787268724E630E035
:102A2000318B208B28E030E0338B228B28E230E0A2
:102A3000358B248B28EC30E0378B268B318F208F21
:102A4000158E978F868F80E590E091A380A30E94DA
:102A5000A9140C94C514EF92FF920F931F93CF9378
:102A6000DF937C01EB018A016FEF70E0CE010E94E1
:102A70000E3328E732E0A0E1B3E090E080E0AC0163
:102A80004E5F5F4F0417150788F0F9016591749147
:102A9000E616F70630F48C0F9D1FFC0171836083EE
:102AA000CA01285F3F4FA217B30749F7DF91CF91C3
:102AB0001F910F91FF90EF900895DC01CB0128E763
:102AC00032E0F90165917491A617B70749F0285FC4
:102AD0003F4F63E020313607A1F78FEF9FEF089556
:102AE000B9016E5F7F4FFB01A591B4914A175B0757
:102AF000A0F3FB0145915491F901349665917491CD
:102B00000E94053390E080E00895CF93DF93C8E7FB
:102B1000D2E0FE01259134918217930741F0289667
:102B200023E0C031D207A9F78FEF9FEF1DC0CE0180
:102B30000296FC012591349142175307A8F3FC013A
:102B400045915491FE013496859194910E940533EC
:102B50000E94A914FE01369685919491009711F078
:102B6000FC01099590E080E0DF91CF91089580917C
:102B7000670390916803089580916C0381700895B4
:102B800080916C0386958170089580916C0382FB1F
:102B9000882780F9089580916C0383FB882780F94A
:102BA0000895AF92BF92CF92DF92EF92FF920F9370
:102BB0001F93CF93DF937C015B01C42FD22FFC01C5
:102BC00082818823F9F04093DB010E94042B9093CB
:102BD000DA018093D90180E28C0F883008F061C05F
:102BE000C77081E001C0880FCA95EAF7DF91CF91E5
:102BF0001F910F91FF90EF90DF90CF90BF90AF901B
:102C00000C94231F1091DB01141340C08091D90153
:102C10009091DA010E941C2B6C01B701C5010E9442
:102C2000B715C816D90690F5C0E2CD0F1D17B9F03B
:102C300080E2810F883040F4177081E001C0880F76
:102C40001A95EAF70E942A1FC83048F481E09D2FA8
:102C5000977001C0880F9A95EAF70E94231F802F72
:102C60000E94171FC830E8F4D77081E001C0880FB8
:102C7000DA95EAF7DF91CF911F910F91FF90EF90D6
:102C8000DF90CF90BF90AF900C942A1F80E28C0F02
:102C9000883038F4C77081E001C0880FCA95EAF720
:102CA000E9CFDF91CF911F910F91FF90EF90DF90CF
:102CB000CF90BF90AF9008950F939C01CB01233F1D
:102CC0004CE5340759F1A8F4283DFCE53F0701F134
:102CD000293D4CE53407D1F1273D3C4591F406E20E
:102CE00021EE41EE67ED7CE50E94D11580E00F9169
:102CF0000895253FFCE53F07E9F0B0F0263F3C454D
:102D0000F9F0FC018281882339F11092DB01EFCFC9
:102D100007E225EE45EE68ED7CE5E6CF06E221EE22
:102D200040EE63EF7CE5E0CF07E225EE44EE64EF92
:102D30007CE5DACF06E221EE42EE65EF7CE5D4CF0A
:102D400007E225EE46EE66EF7CE5CECF08E221E015
:102D500045EE69ED7CE5C8CF81E0C9CFCF93DF9325
:102D6000EC01FB018281882309F419C1C230FCE522
:102D7000DF07C0F1C6319CE5D90730F09E012A5F1C
:102D80003C452930310570F50E949B2990937202D1
:102D900080937102C031ECE5DE0709F4CFC008F082
:102DA0005BC0C8308CE5D80709F4B6C088F5C430DC
:102DB000ECE5DE0709F4A8C0C0F4C2308CE5D80702
:102DC00009F49CC0809171028260C330DC4509F433
:102DD00098C080917102909172020E94A9290E946C
:102DE000551F80E0DF91CF9108958091710280613D
:102DF000C630ECE5DE0709F484C08091710288607A
:102E0000C730DC4508F47DC080917102806279C0D2
:102E1000CC308CE5D80709F489C070F48091710238
:102E20008C60CA30ECE5DE0709F46BC008F478C0AA
:102E3000809171028E7F65C0CE308CE5D80709F491
:102E400079C0809171028B7FCF30DC4508F459C086
:102E5000809171028F7E55C0CB3FECE5DE0709F40F
:102E600057C030F5C3318CE5D80709F46FC078F44A
:102E7000C131ECE5DE0709F465C0C231DC4509F07B
:102E8000A8CF0E94551F809171028F773AC0C5313B
:102E90008CE5D80709F462C008F476C0809172020C
:102EA0008160CA3FDC4509F094CF8093720291CFD4
:102EB000CF3FFCE5DF0709F44DC088F48091720232
:102EC0008D7FCD3F9CE5D90781F3809172028E7F83
:102ED000CE3FDC4550F3809172028360E6CFC13073
:102EE000FDE5DF0709F459C008F444C080E0C230B2
:102EF000DD4509F06ECF0E942F2A6BCF80917102C1
:102F000081608093710265CF809171028460F9CFF6
:102F1000809172028260C9CF809171028064F1CF8A
:102F20000E94551F809171028068EBCF80917102E1
:102F30008D7FE7CF80917102877FE3CF809171020F
:102F40008F7DDFCF809171028F7BDBCF809171020B
:102F5000837FD7CF809172028C7FA7CF809171023F
:102F600082FB992790F921E0922790FB82F990FB50
:102F700083F9C7CF80917202982F909591708E7FC0
:102F8000892B90FB81F991CF0E94551F909171027E
:102F9000892F97FB87F98058B4CF81E0ACCF81E0CF
:102FA00021CFCF93DF93EB0186319C4509F03BC0E5
:102FB0000E949128982F9A7A2091690320FF04C0DB
:102FC000382F347409F090E021FF04C0382F31719C
:102FD00009F090E022FF04C0382F387809F090E023
:102FE00023FF03C0827209F090E08A81882389F070
:102FF00081E0911101C080E08093DC0189E29111B0
:1030000085E30E9414280E94FC2880E0DF91CF9184
:1030100008958091DC01811104C089E20E941B287F
:10302000F2CF85E3FBCF81E0F1CFE5E2F3E083E08F
:10303000ED34F80739F488E090E09093EE01809346
:10304000ED010895848187FF14823596F0CFCF93E8
:103050009091EB01992321F0811116C01092EB01A0
:10306000CF910895EC2FF0E0EE0FFF1FE352FE4FDB
:10307000808191810E94E0020E94FC28CF5F8091B4
:10308000EB01C81778F3EACFC0E0F9CF80910801CF
:103090008823A1F08091EF019091F001009771F0E9
:1030A0000E941C2B20916503309166032817390775
:1030B00028F481E00E9427180C94151808951092A6
:1030C00008011092F0011092EF0181E00C94271892
:1030D0008091080181110C945F1881E080930801B0
:1030E00008952F923F924F925F926F927F928F92AC
:1030F0009F92AF92BF92CF92DF92EF92FF920F9387
:103100001F93CF93DF93CDB7DEB72A970FB6F8940E
:10311000DEBF0FBECDBF7C016B01873F4CE594073E
:1031200009F5FB011281112391F181E080930801DF
:10313000812F2A960FB6F894DEBF0FBECDBFDF9168
:10314000CF911F910F91FF90EF90DF90CF90BF90A4
:10315000AF909F908F907F906F905F904F903F9037
:103160002F900895883FFCE59F0739F4FB011281F9
:10317000112369F00E945F18DBCF893F9C4539F429
:10318000FB011281112319F00E946818D1CF4090E1
:10319000080111E0442061F21092EE011092ED015D
:1031A00010E095E0392E88248394912C22242394D6
:1031B000A090ED01B090EE01F8E0AF16B10480F000
:1031C0008091EC01882309F4B2C00E94042B9093F3
:1031D000F0018093EF011092EC0181E01827A8CF55
:1031E0003A9CF0013B9CF00D1124EB5DFC4FBE01BD
:1031F0006F5F7F4F80810E94F811892B61F000E0A2
:10320000102B8091ED019091EE0101969093EE01CB
:103210008093ED01CDCFFE01319690E080E0552402
:103220005A94282F419151914115510589F1E41685
:10323000F50609F4582E01968430910591F724E0A3
:10324000FFEF5F16E1F2F60102813A9CC0013B9C60
:10325000900D1124AC014B5D5C4F3A01FA01848161
:10326000A40102C0440F551F2A95E2F79A0121508C
:103270003109002349F1A40101C0440F5A94EAF72F
:10328000842B84838F778217130631F0042DB8CFF7
:10329000823008F4B4CFD4CF80E00E942718F30125
:1032A00084818068848382819381009729F00E94C1
:1032B000E0022092EC01A4CF61E08091ED019091B9
:1032C000EE010E94E110F5CF8F778217130631F4DB
:1032D00082819381009719F10E94F5023A9CF001D6
:1032E0003B9CF00D1124EB5DFC4F4481242F30E01A
:1032F000052C02C0359527950A94E2F720FF7FCF71
:10330000C40101C0880F5A94EAF78095842384830E
:1033100087FF75CF803809F0B9CF1482B7CF60E04E
:103320008091ED019091EE010E94E110D7CF111133
:1033300006C081E00E9427180E9415184ECFF601A2
:103340008281882309F449CF0E94042B9093F001D5
:103350008093EF01E091EB01E73008F03ECF81E090
:103360008E0F8093EB01F0E0EE0FFF1FE352FE4F54
:10337000F182E08232CFCF93DF93EC0181E0898B41
:103380008F810E94942888850E94A7280E94FC288B
:10339000EA81FB81309739F06C897D89CE010696F0
:1033A000DF91CF910994DF91CF910895EF92FF9231
:1033B0000F931F93CF93DF93EC018A85811134C063
:1033C000EB80FC8087E5F81A26E12E9DC0012F9D39
:1033D000900D1124DC01AB58BD4F1496ED91FC917A
:1033E0001597309731F054966D917C9185589D4F8B
:1033F000099586E18E9D80018F9D100D11240B583B
:103400001D4FF80187810E949A28F80180850E944B
:10341000AD280E94FC28188219861B861E821D82F8
:103420001092F2011092F101DF91CF911F910F9153
:10343000FF90EF900895DF92EF92FF920F931F930A
:10344000CF93DF937C01FB018281882391F08091EF
:1034500009018F3F71F0C5E7D2E010E000E0DD2404
:10346000D39480910901082E000C990B80179107C5
:1034700044F4DF91CF911F910F91FF90EF90DF9077
:1034800008958E818823D9F089859A858E159F05A8
:1034900039F48091F1019091F2018E159F0579F038
:1034A000DF86FC86EB868989811103C0CE010E94EC
:1034B000BB19CE0106960E94D6190E94B4280F5F50
:1034C0001F4F6696CECFEF92FF920F931F93CF932D
:1034D000DF937C0197558F3F910509F0D8F5209136
:1034E0000901022E000C330B2817390714F48093BE
:1034F0000901FB01228136E1389F8001399F100DBF
:103500001124E801CB58DD4F288B92818E819923BD
:1035100049F1FA86E9868F5F8E830E94042B9E878D
:103520008D870E94BA288F830E94912888870E94E5
:10353000A4289885892B8887E881F981309731F014
:103540006C897D89C80185589D4F0995F092F201DB
:10355000E092F10181E0DF91CF911F910F91FF90F7
:10356000EF9008958823B1F38989882399F3C801DE
:1035700085589D4F0E94D619EDCFCF92DF92EF92E2
:10358000FF920F931F93CF93DF938091090110E077
:1035900006E18F3FF1F5DF91CF911F910F91FF90E1
:1035A000EF90DF90CF9008950E9DF0010F9DF00DEC
:1035B0001124EB58FD4FC288D388C114D10439F4CB
:1035C00070E060E0818592850E94B7156C010E9DC8
:1035D000E0010F9DD00D1124CB58DD4F8E81882343
:1035E000B9F08D859E850E941C2BC816D90680F4E3
:1035F000109F700111248989811105C0C7018B5862
:103600009D4F0E94BB19C70185589D4F0E94D61936
:103610001F5FE12EF12C80910901082E000C990BFF
:103620008E159F050CF6B7CFFF920F931F93CF9384
:10363000DF938C01EB01F42E80910A0182FF4AC0D6
:103640008B7F80930A018091F5019091F6019B0197
:10365000281B390BC90120910B0130910C018217F5
:103660009307B8F48091F3010E94181E80910A011B
:103670008D7F80930A0180916D0390916E03019775
:1036800010F58091F3010E94AA1E82E00E94AD28ED
:103690002BC082E00E94A7288091F3010E94181E8F
:1036A00080910A01826080930A0180916A0385FFFC
:1036B000E2CF86FDE0CFFF20F1F2DF91CF911F91A5
:1036C0000F91FF900895EFE9FFE03197F1F700C007
:1036D0000000D5CF802F0E94AA1E8091F301909107
:1036E000F4018017910789F20E94FC28D093F6011B
:1036F000C093F501E2CF80916A0380FF1DC08091E5
:103700000A0182FF19C00E94042B2091F50130911B
:10371000F601AC01421B530B9A0140910B015091F1
:103720000C012417350740F041E0BC018091F30102
:103730009091F4010C94141B089590910A01892F23
:103740008E7F90FF816080930A0182E00C94AD2807
:1037500080910A018E7F80930A0182E00C94AD284B
:1037600090930C0180930B0108958832910538F4F1
:103770008E319105E8F40497A0F480E00895893330
:10378000910558F48D32910510F48B97B1F7809123
:103790006A0382FB882780F908C084369105B9F353
:1037A000ECCF80916A038295817091E0892708951A
:1037B00080916A0383FB882780F9F7CFCF92DF924D
:1037C000EF92FF920F931F93CF938C016B01809127
:1037D0006A0380FD0AC0C1E08C2FCF911F910F9129
:1037E000FF90EF90DF90CF9008950E94042B7C0112
:1037F000F601C281CC2329F180910A0182FF06C023
:1038000040E0B70190E080E00E94141B82E00E943B
:10381000AD280B31FCE51F0759F00C314CE51407BE
:1038200069F00A315CE5150761F40E949D1BD4CF55
:1038300080910A01816080930A01CECF0E94A81B6B
:10384000CBCFB601C8010E94B51B882321F2F60137
:10385000C281CC2309F44EC080910A0180FFBBCF06
:1038600080916A0381FF15C080916A0385FD16C0AF
:103870001093F4010093F301F092F601E092F50148
:1038800080910A01846080930A0182E00E94642989
:103890002FC00E949128882339F39DCF2091F501F4
:1038A0003091F601A701421B530B9A0186FD04C01B
:1038B00080910A0181FDDCCF283C3105C8F680915A
:1038C000F3019091F4010817190791F680910A010C
:1038D00081FBCC27C0F981FD04C0802F0E94181EF7
:1038E0007BCF82E00E94A7288091F3010E94181EDE
:1038F000C0E072CF40E0B701C8010E94141B6CCF3A
:103900009093FC018093FB010895E091FB01F091FD
:10391000FC01309721F00190F081E02D099480E0C6
:103920000895E091FB01F091FC01309721F00280B5
:10393000F381E02D09940895E091FB01F091FC01E1
:10394000309739F022E0DC012C930480F581E02DE2
:10395000099408952091F9013091FA012817390747
:1039600071F09093FA018093F901E091FB01F091DD
:10397000FC01309721F00680F781E02D099408952D
:103980002091F7013091F8012817390771F09093D1
:10399000F8018093F701E091FB01F091FC01309771
:1039A00021F00084F185E02D099408950E94102BE8
:1039B00060930702709308028093090290930A02B1
:1039C00060930302709304028093050290930602B1
:1039D00008950E94102B6093070270930802809351
:1039E000090290930A026093FF0170930002809392
:1039F000010290930202089585B7806885BF85B75C
:103A0000806885BF0895089508950C94031D089556
:103A10000C94071D0E94FC1C80E899E20E94602B18
:103A20000E94A00E0E94C5140E94041D0C94051D46
:103A300081E008950C94181D089508950E941C1D9E
:103A40000C941D1D0E94FB2A0E9484070E94700B8B
:103A50000E94D60A0C94081DEF92FF920F931F93B9
:103A6000CF93DF93CDB7DEB72A970FB6F894DEBFBA
:103A70000FBECDBF0E94A20781110E94D61C80E01C
:103A80000E945E07182F8091FE01E82EE126811723
:103A900009F44AC08091650281FD0E946407F12CFF
:103AA00001E08E2D8023D9F10E941A1D882399F000
:103AB000FE821F82102381E009F480E088870E9443
:103AC000042B8160782F9A8789874E815F81688572
:103AD0008A850E94BC1D8091FE0108270093FE018B
:103AE0000E94E60A81110E94E91C0E94BC090E9402
:103AF000851C9091FD01891741F10E94851C8093DE
:103B0000FD012A960FB6F894DEBF0FBECDBFDF9140
:103B1000CF911F910F91FF90EF900C942C05F3948F
:103B2000000F86E0F812BDCF8FEF89838A831B8256
:103B30000E94042B8160782F9D838C8349815A8158
:103B40006B818D810E94BC1DCBCF2A960FB6F89455
:103B5000DEBF0FBECDBFDF91CF911F910F91FF90C0
:103B6000EF900895019708F40895EFE9FFE0319789
:103B7000F1F700C00000F6CFCF92DF92FF920F93D3
:103B80001F93CF93DF93CDB7DEB72B970FB6F89483
:103B9000DEBF0FBECDBF7A878B878A01F62ECA841F
:103BA000DB84C114D10421F0812F84238F3F89F558
:103BB000F1100E94B4281E821D8209831A83FB82A1
:103BC000DD82CC828091510390915203892B61F068
:103BD0000E944F28882319F082E00E9464290E94E5
:103BE0002B2881110E94EE2849815A816B817C81AA
:103BF0008D819E812B960FB6F894DEBF0FBECDBF90
:103C0000DF91CF911F910F91FF90DF90CF900C9497
:103C10009D2580910C0290910D02019690930D02CA
:103C200080930C02C5CFFC01808191810C94E62722
:103C3000CF93C82F882309F48BC08238C1F40E9427
:103C4000851C81FD85C089E30E9414280E94FC2800
:103C50002FEF81EE94E0215080409040E1F700C0CA
:103C6000000089E30E941B28CF910C94FC28833824
:103C7000A1F40E94851C80FD6BC083E50E9414287E
:103C80000E94FC282FEF81EE94E02150804090406C
:103C9000E1F700C0000083E5E5CF8438A1F40E947D
:103CA000851C82FD55C087E40E9414280E94FC28D0
:103CB0002FEF81EE94E0215080409040E1F700C06A
:103CC000000087E4CFCF8CEF8C0F813A90F46C2FFB
:103CD00080910D0190910E010E94462A882329F0BF
:103CE0008C2F0E941B280E94FC288C2F0E941428D5
:103CF000BBCF80E28C0F883048F4C77081E001C0F0
:103D0000880FCA95EAF70E949428AECFEBE5EC0F36
:103D1000E33040F4F0E0E956FE4F808190E0CF912F
:103D20000C94AA1CE8E5EC0FE73150F4F0E0EE0F3C
:103D3000FF1FE759FE4F80819181CF910C94C01CE9
:103D4000C03F30F08C2F0E94B608CF910C94A1098F
:103D5000CF910895882309F452C0823871F40E94EB
:103D6000851C81FF4CC089E30E9414280E94FC2816
:103D700089E30E941B280C94FC28833859F40E9484
:103D8000851C80FF3CC083E50E9414280E94FC280B
:103D900083E5EFCF843859F40E94851C82FF2FC041
:103DA00087E40E9414280E94FC2887E4E2CF9CEF5D
:103DB000980F913AF0F290E2980F983050F4877093
:103DC00091E001C0990F8A95EAF7892F0E949A28FD
:103DD000D2CF9BE5980F933020F490E080E00C94D4
:103DE000AA1C98E5980F973120F490E080E00C949D
:103DF000C01C803F20F00E941E090C94A109089568
:103E00001F93CF93DF93182FEB010E94181E20976A
:103E100031F4812FDF91CF911F910C94AA1E8FE96D
:103E20009FE00197F1F700C000002197F0CF60916B
:103E30006F0370917003893321F060916D0370916D
:103E40006E030C94001F882321F00E9494280C9488
:103E5000FC280895882321F00E949A280C94FC28BD
:103E60000895882321F00E94A7280C94FC28089527
:103E7000882321F00E94AD280C94FC28089590E03E
:103E800080E00E94AA1C90E080E00E94C01C0E947A
:103E9000B4280E94B7280E94FC280E94C80A0C94EB
:103EA000A1090E9422280C943F1F0E94A1280C9473
:103EB000511FE92FE295EF70E250EE3070F4F0E020
:103EC000E158FC4C0C94EF32803F19F020F4883E0E
:103ED00020F481E00895843FE1F380E00895883E76
:103EE000C0F3813FD1F7F5CF93FB882780F9089580
:103EF0000E94E6270C94591F4F925F926F927F9217
:103F0000BF92CF92DF92EF92FF920F931F93CF93C6
:103F1000DF937C01EB01FC010281158112951F707A
:103F20000E946928C82E8823A1F0C02E002389F0A2
:103F30008D2F807F803429F080E28C0FC12C883057
:103F400040F082E00E9464290E94692891E0C82E16
:103F5000C926BD2EB2942FE0B222FBE0FB15B0F1D2
:103F6000EB2DF0E0E357FC4C0C94EF322D2F2F702B
:103F7000D22E8D2F807F19F0D29490EFD92200237A
:103F8000A9F0DD2059F080E28C0F883010F0C111CB
:103F900009C08D2D0E9494280E94FC288C2F0E941D
:103FA000181E14C08D2D0E94A728F6CF8C2F0E94BA
:103FB000AA1EDD2059F080E28C0F883010F0C1116C
:103FC00038C08D2D0E949A280E94FC28EB2DE850C5
:103FD000FF0B349720F40E94851C0E942C05CE0113
:103FE0000E94591F811101C210920D0210920C0201
:103FF000CC2009F41BC20E944B2880FD17C2F70198
:1040000012820E9445280E94A926C7010E943B22D5
:104010000E944528DF91CF911F910F91FF90EF9063
:10402000DF90CF90BF907F906F905F904F900C94F7
:10403000CA268D2D0E94AD28C7CF3D2F3F70D32EAD
:104040008D2F807F803219F0D29480EFD822CC233C
:10405000E9F0C13009F455C0002309F45CC0112314
:1040600091F120E0F7014081518162817381848167
:104070000E941303B7010E94C01581118FCFF70171
:10408000858180FF8BCF8F7085831DC00023E9F071
:10409000111106C00E94BA288D290E94231F96CFB5
:1040A000113031F40E94BA288D290E94D6288ECF73
:1040B00080916B03823070F38113ECCF0E94EE2865
:1040C0008D2D0E94C0288D2DE8CF111106C00E94B1
:1040D000EE288D2D0E942A1F79CF80916B0311301D
:1040E00059F4823008F472CF0E9491288D2109F48E
:1040F0006DCF0E94C928EBCF823048F31813E7CF69
:1041000065CF002321F0163008F060CFDCCF1530EA
:1041100008F05CCFDECF1123E1F280916F03909124
:104120007003C93321F080916D0390916E030E945A
:10413000B21D8C2F0E94AA1E49CF8D2F8695869581
:10414000837061F0813009F041CFCE01937001118D
:1041500002C090E080E00E94C01C38CFCE01937076
:10416000011102C090E080E00E94AA1C2FCF8C2F8A
:10417000002339F00E94B6080E94A1090E94A109FB
:1041800025CF0E941E09FACF8D2F837009F043C0FE
:1041900001111CCF2C2F229526952770220F220F5C
:1041A0006C2F6F70462E512C712C612C022E04C086
:1041B000440C551C661C771C0A94D2F760E070E032
:1041C000CB01C4FF0FC06FE070E080E090E004C05E
:1041D000660F771F881F991F2A95D2F760957095F3
:1041E000809590952D2F2695269523706429752905
:1041F00086299729223049F058F4213019F00E947D
:104200005B26E4CE0E944926E1CE0E946D26DECEDA
:104210000E944726DBCE8695002311F08D2F8170FA
:10422000882309F4D3CE2C2F229526952770220FB0
:10423000220F6C2F6F70462E512C712C612C022E88
:1042400004C0440C551C661C771C0A94D2F760E02D
:1042500070E0CB01C4FF0FC06FE070E080E090E041
:1042600004C0660F771F881F991F2A95D2F76095A3
:104270007095809590952D2F26952695237064290D
:10428000752986299729223049F058F4213019F0F0
:104290000E9420279BCE0E940E2798CE0E94322794
:1042A00095CE0E94832692CEFD2FFF70DF2E002335
:1042B00029F08F2F0E94A9268C2FEFCE8C2F0E94E1
:1042C0002A1F8D2D0E94CA2681CEC23F09F43FC00D
:1042D00060F4C03F31F1C13F91F1002309F480C087
:1042E00011115CCE8D2F8F712FC0C33FA9F1C43F38
:1042F000A1F780916B03823008F45BC0002309F4BE
:1043000044C00E9428280E949A280E944B2884308A
:1043100069F50E945B298D2F8F710E94CA26C12CDE
:1043200055CE002341F0153008F050CE8D2F8F71FF
:104330000E94ED264BCE163008F048CEF7CF8D2FD9
:104340008F71002309F4BECF0E94A9263FCE8D2F86
:104350008F710023C9F3B6CF002329F08D2F8F7101
:104360000E94942633CE0E948F2630CE80916B031C
:104370001817A8F62D2F2F71D22E822F0E94A92652
:1043800063E08D2D0E943F29CACF0E9428280E94F9
:10439000942880916B03181740F00E945B290E94BB
:1043A000C92864E08D2F8F71EDCF81E00E946429D0
:1043B000B6CF002359F03D2F3F71D32E832F0E949B
:1043C000A92663E08D2D0E943F2900CE81E00E9446
:1043D0006429123008F4FACD82E00E946429F6CDF7
:1043E00011119BCE8D2F8F716DCF002319F01111FC
:1043F000FBCDFECD1111F8CD20E0F70140815181B8
:104400006281738184810E941303B7010E94CB15DE
:10441000882309F4E9CD80910C0290910D02029756
:1044200009F0E2CD8C2F0E94171FDECDDF91CF91D6
:104430001F910F91FF90EF90DF90CF90BF907F90F2
:104440006F905F904F9008950F931F93CF93DF93DA
:10445000EC01688179818A810E94F0278C010E9499
:1044600044270E944626B801CE01DF91CF911F91CB
:104470000F910C947C1FCF93DF93EC018B819C8177
:10448000892B29F08881998189238F3F59F4DF9105
:10449000CF910895CE010E942422CE01DF91CF91C9
:1044A0000C944F03CE010E9449048111F3CF0E9466
:1044B0006928882361F38A81882349F382E0DF91A8
:1044C000CF910C946429CF93DF9300D000D00F924A
:1044D000CDB7DEB70F900F900F900F900F90DF9138
:1044E000CF910895CF93DF9300D000D000D0CDB707
:1044F000DEB726960FB6F894DEBF0FBECDBFDF91B4
:10450000CF9108951F93CF93DF93C0910E0216E0D1
:1045100080910F028C1304C0DF91CF911F910895F9
:10452000D0E01C9FF0011D9FF00D1124E05FFD4FB6
:104530004081518162817381848195810E947222C0
:104540002196C770E5CF40914002509141026091A1
:1045500042027091430280914402909145020C9472
:10456000722220910E0290910F0256E0291302C090
:1045700080E0089530E0529FF001539FF00D112428
:10458000E05FFD4F7181761306C07081781303C020
:104590007281741304C02F5F3F4F2770E7CF81E013
:1045A0000895DF92EF92FF920F931F93CF93DF93C3
:1045B00080914502807F61F480914202882341F01E
:1045C000C0910E0286E0D82E80910F028C1308C095
:1045D000DF91CF911F910F91FF90EF90DF900895A1
:1045E0002091430230914402D0E02115310541F081
:1045F0008091400290914102482F49234F3F19F486
:104600002196C770E1CFDC9E8001DD9E100D112444
:10461000F801E05FFD4F51815913F2CF40814813FB
:10462000EFCF82818111ECCFE380F480E21AF30AAC
:1046300020E06091420270914302809144020E9406
:10464000130360E472E00E94B715E816F906C0F69D
:10465000809145028F70806180934502F801EB5E86
:10466000FD4F80818F708061808380E492E00E94A2
:104670003B22DF91CF911F910F91FF90EF90DF9040
:104680000C9482226F927F928F929F92AF92BF92F0
:10469000CF92DF92EF92FF920F931F93CF93DF930E
:1046A000CDB7DEB761970FB6F894DEBF0FBECDBFB2
:1046B0008C0185E0F801DE011D9601900D928A952E
:1046C000E1F7D8017C901196EC9011971296FC902E
:1046D00080E4882E82E0982E8091430290914402DB
:1046E000009749F04091400250914102242F252328
:1046F0002F3F09F0BDC1F1101BC1C8010E943B2230
:1047000087C020E0409140025091410260914202F6
:1047100070914302809144020E941303B8010E94E9
:10472000BC158111E9C1CD2829F08E2D87218F3F3D
:1047300009F017C180E0B82FB170CB2E80FF29C0DF
:104740004F2D6E2D872D0E94B122D82E811121C0B0
:104750007D86EE868D859E850E94E627292F2295EF
:104760002F70223050F0243078F49F7051F0F8010F
:104770009581907F31F46D2C10C19F7011F08823CA
:10478000D1F3805E8830B8F3C8010E943B22DC2C54
:10479000F2CFFF2009F401C180914502816080932E
:1047A0004502612CFAC0892B49F08091400290911A
:1047B0004102282F29232F3F09F005C17D86EE866F
:1047C0008D859E850E94781F882309F496CFFF204F
:1047D00009F493CF80914502803270F0209140021D
:1047E0003091410238872F831986DB86CA868C87F1
:1047F000CE0107960E943B2286E0F801A0E4B2E0D9
:1048000001900D928A95E1F70E94D1220E94A32285
:1048100066246394C2C0211113C07C2DD98AC88A32
:10482000472D5E2D6F2D89890E94632280E492E0DE
:104830000E943B2286E0F40111928A95E9F77AC141
:104840008091430290914402892B49F0809140026B
:1048500090914102282F29232F3F09F0CDC07D865A
:10486000EE868D859E850E94781F882309F445CFAA
:10487000FF2009F442CF80914502803208F4BCCF7A
:1048800020914002309141023A8329831B82DD82CC
:10489000CC828E83CE010196ADCF20E060E0709196
:1048A0004302809144020E94130360E472E00E947C
:1048B000B715A816B90668F56F2CFF2009F41DCFAF
:1048C0008091430290914402892B49F0409140022B
:1048D00050914102842F85238F3F09F0A3C07D862C
:1048E000EE868D859E850E94781F811185CF8091EF
:1048F0004502816080934502C8010E943B224DC061
:1049000086E0F801A0E4B2E001900D928A95E1F70B
:1049100044C07C2DD98AC88A472D5E2D6F2D898988
:104920000E94632286E0D4011D928A95E9F761C056
:104930007D86EE868D859E850E94781F682E882351
:1049400009F4DBCE86E0F801A0E4B2E001900D921C
:104950008A95E1F780E492E00E94131E0E94D12222
:1049600048C081E08F25E7CE81E08F25CEC09E1123
:10497000AFC08711ADC0F110ABC0809145028F7000
:104980008061809345020E94A32280E492E00E940D
:104990003B2280914502F8018583862D61960FB6F2
:1049A000F894DEBF0FBECDBFDF91CF911F910F9165
:1049B000FF90EF90DF90CF90BF90AF909F908F903F
:1049C0007F906F9008959E11F9CE8711F7CEF11068
:1049D000F5CE80914502D80115968C93C8010E94AE
:1049E0003B2286E0F801A0E4B2E001900D928A95A6
:1049F000E1F70E94A322D1CF9E1131CF87112FCF93
:104A0000F1102DCF80914502D80115968C93C801E5
:104A10000E943B22E0E4F2E086E0DF011D928A95ED
:104A2000E9F7BBCF5E115BCF471159CF20E0609112
:104A3000420270914302809144020E941303B80124
:104A40000E94C51581115CCF8091450280FD58CF31
:104A5000982F907F09F454CFF8018583903F09F493
:104A6000BDCF982F907F905F8F70892B8583B6CFB5
:104A7000F801C380D480609042025601A81AB90A96
:104A8000662009F40ACF20E0662D709143028091E0
:104A900044020E94130360E472E00E94B715209163
:104AA0004502207FA816B90608F0B5CE80914302D2
:104AB00090914402211177CE6F2C892B49F080917F
:104AC000400290914102282F29232F3F09F04FCF18
:104AD00020E0409140025091410260914202709169
:104AE0004302809144020E941303B8010E94B7154B
:104AF000843F914008F405CEC114D10429F08E2DD5
:104B000087218F3F09F030CF80E080FF0CCE4F2D02
:104B10006E2D872D0E94B122882309F404CE80E4F3
:104B200092E00E943B2286E0E0E4F2E0DF011D9289
:104B30008A95E9F70E94A32234CE1F93CF93DF9387
:104B4000CDB7DEB72C970FB6F894DEBF0FBECDBF42
:104B50004F83588769877A878B879C87CE01079612
:104B60000E944223882369F08A859B85892B39F02E
:104B70004F815885842F85238F3F09F071C016E03F
:104B80005FC086E0FE013796DE01119601900D921E
:104B90008A95E1F78A859B85892B89F38F81988592
:104BA00089238F3F61F320910F0230E0C901019604
:104BB0008770992740910E024817190671F40E94D8
:104BC000551F10920F0210920E0286E0E0E4F2E010
:104BD000DF011D928A95E9F7D2CF96E0929FD0012E
:104BE000939FB00D1124A05FBD4FFE01319601903F
:104BF0000D929A95E1F780930F020E948222BFCF17
:104C0000819FC0011124805F9D4F0E944223882311
:104C1000E9F0E0910E021E9FF0011124E05FFD4FCC
:104C20004081518162817381848195810E947222C9
:104C300080910E0290E001968770992780930E0272
:104C400080910E0290910F028913DACF2C960FB645
:104C5000F894DEBF0FBECDBFDF91CF911F910895B5
:104C600069857A858B859C850E94722288CF0895FC
:104C70000C9437260E94382660934F02709350029E
:104C800080935102909352020C943F1F08950C940C
:104C90003A260F931F9300914F02109150022091DA
:104CA000510230915202602B712B822B932B1F915A
:104CB0000F910C943A260F931F9300914F0210917D
:104CC00050022091510230915202602371238223BD
:104CD00093231F910F910C943A260F931F930091E9
:104CE0004F021091500220915102309152026027E0
:104CF0007127822793271F910F910C943A260C94C9
:104D000037260C947F260E94812660934B02709375
:104D10004C0280934D0290934E020C943F1F60E032
:104D200070E0CB010C9483260F931F9341E050E079
:104D300060E070E08A019B0104C0000F111F221F78
:104D4000331F8A95D2F7C901B8011F910F910C94B6
:104D500083260F931F9341E050E060E070E004C0B1
:104D6000440F551F661F771F8A95D2F780914B021B
:104D700090914C02A0914D02B0914E028A019B018C
:104D8000082B192B2A2B3B2BC901B8011F910F911E
:104D90000C9483260F931F9341E050E060E070E095
:104DA00004C0440F551F661F771F8A95D2F7CB01A9
:104DB000BA01609570958095909500914B02109185
:104DC0004C0220914D0230914E02602371238223C8
:104DD00093231F910F910C9483260F931F9341E00F
:104DE00050E060E070E004C0440F551F661F771F5D
:104DF0008A95D2F780914B0290914C02A0914D027E
:104E0000B0914E028A019B01082719272A273B27C8
:104E1000C901B8011F910F910C9483260F931F9322
:104E200000914B0210914C0220914D0230914E02A4
:104E3000602B712B822B932B1F910F910C94832647
:104E40000F931F9300914B0210914C0220914D0241
:104E500030914E0260237123822393231F910F917F
:104E60000C9483260F931F9300914B0210914C02D8
:104E700020914D0230914E0260277127822793279F
:104E80001F910F910C94832608959E3F71F1292F55
:104E9000220FE22FE90FEE0FE80F8E2F877041E00F
:104EA00001C0440F8A95EAF7E695E695E69585E018
:104EB000E89FF0011124EA5BFD4F30E020E070E054
:104EC0005191DF011197CB01022E02C09695879573
:104ED0000A94E2F7817081958527842385278C9336
:104EE0002F5F3F4F2530310559F708959E3F51F10F
:104EF000292F220FE22FE90FEE0FE80F9E2F977058
:104F0000E695E695E69585E0E89FF0011124EA5BD9
:104F1000FD4F50E040E080E0219130E0092E02C0DA
:104F2000369527950A94E2F721703327042E01C0A5
:104F3000220F0A94EAF7822B4F5F5F4F45305105ED
:104F400059F7089580E00895BF92CF92DF92EF92D3
:104F5000FF920F931F93CF93DF938C01C0904B026E
:104F6000D0904C02E0904D02F0904E0280914F02A2
:104F700090915002A0915102B0915202C82AD92AB0
:104F8000EA2AFB2ACFE1D0E0BC2ED701C6010C2EC5
:104F900004C0B695A795979587950A94D2F780FD9A
:104FA0000EC0219788F7B12C8B2DDF91CF911F91E7
:104FB0000F91FF90EF90DF90CF90BF900895B801D0
:104FC0008C2F0E943405019761F3EECFCF93DF93CE
:104FD000EC010E94A427BE01DF91CF910C9434050F
:104FE0001F93CF93DF93EB0190910B02992331F044
:104FF000CB01DF91CF911F910C94E627882379F0A4
:10500000CB010E94A427182F682FCE010E944527AC
:10501000BE01812FDF91CF911F910C943405CB01FC
:105020000E947627182FF4CF682F80910D01909160
:105030000E010C947C2A682F80910D0190910E0135
:105040000C947E2A80910D0190910E010C94802A7F
:105050008091580208958091510390915203892BB9
:1050600089F00E94042B2091560230915702AC0126
:10507000421B530B81E020915103309152034217A0
:10508000530708F480E0817008958091550285955A
:1050900085958595089580915502877008950E94A1
:1050A000042B2091530230915402821B930B2091C8
:1050B0005103309152038217930748F080915502B3
:1050C00082FB882780F991E089278170089580E02C
:1050D000FCCF90915502977081E009F480E008952B
:1050E0009091720292FB222720F9281751F080FB41
:1050F00092F99093720280917102909172020C94D5
:10510000A92908958091720282FB882780F991E095
:1051100089270C94702881E00C94702880E00C940E
:10512000702880916402089590916402892B809385
:10513000640208958095909164029823909364028C
:1051400008951092640208958091630208959091E9
:105150006302892B80936302089580959091630286
:105160009823909363020895109263020895109219
:105170006202089580915902089508950C94BD2803
:1051800090915802981721F0809358020C94BE28F1
:10519000089580915802882329F01092580280E0E7
:1051A0000C94BE28089508950C94D328CF93C82F4B
:1051B0008091720282FD10C0809159028C1761F0BB
:1051C0000E94042B9093570280935602C093590279
:1051D0008C2FCF910C94D428CF91089580915902AF
:1051E000882349F0109259021092570210925602E9
:1051F00080E00C94D4280895E0910D01F0910E0107
:10520000809164028083E0910D01F0910E01808114
:1052100090916302892B8083E0910D01F0910E0142
:10522000808190916202892B80838091590288232A
:10523000E9F08091510390915203892B29F00E944B
:105240002B2881110E94EE28E0910D01F0910E01B2
:10525000808190915902892B808380910D019091DA
:105260000E010E94342A81110E94EE2880910D01C6
:1052700090910E010C94911C08950C943C299091EE
:10528000720292FD16C098E0899F90011124622B52
:10529000609355020E94A9260E94042B9093540209
:1052A00080935302809155028595859585950C9440
:1052B0003D290C94A9261092550210925402109286
:1052C000530280E00C943D299091550280958923EA
:1052D00080935502282F277039F4282F082E000CB0
:1052E000330B9217130621F49091720292FF07C0BC
:1052F0008595859585950E94CA260C945B2908950D
:1053000080E008956FEF7FEF90E080E00C945133E0
:1053100090E080E00E942D3321E08A3E9E4F09F00C
:1053200020E0822F089582E090E00C94253383E002
:1053300090E00C942533CF9384E090E00E942533D5
:10534000C82F82E290E00E942533982F8C2FCF91B6
:105350000895CF93C92F682F84E090E00E943333E3
:105360006C2F82E290E0CF910C943333AB01BC01FF
:105370008FE090E00C944533AB01BC0183E190E0F9
:105380000C94453360E070E0CB010C94BC2960E0E4
:1053900070E0CB010E94B6290C94C2296AEE7EEF20
:1053A00090E080E00E94513360E082E090E00E9453
:1053B000333360E083E090E00E94333310924F0279
:1053C00010925002109251021092520260E084E05A
:1053D00090E00E94333360E082E290E00E94333339
:1053E00060E085E090E00E94333360E086E090E08A
:1053F0000E9433336FEF87E090E00E94333340E048
:1054000050E0BA0188E090E00E94453360E08DE012
:1054100090E00E94333340E050E0BA0188E190E030
:105420000E94453360E087E190E00E94333340E022
:1054300050E0BA018CE190E00E94453370E060E0FA
:1054400080E290E00E94513340E050E0BA0188E1F0
:1054500090E00E9445330C94C7290C94CE29682F04
:105460008EE090E00C9433339C012E5F3F4FAC01F3
:10547000485F5F4F80E02417350709F40895F9016C
:1054800091919F019923B9F38F5FF5CF662349F07E
:10549000FC01329608962191261729F0E817F907A2
:1054A000D1F780E0089581E008959C01FC013296D7
:1054B0009FEF80E04191461751F09F3F19F4411151
:1054C00001C0982F8F5F8630A9F79F3F09F4089598
:1054D000290F311D97FD3A95F90162830895FC016A
:1054E000329608962191261303C0DF0111971C9272
:1054F000E817F907B9F708950C94552A0C946F2A08
:10550000029626E0FC0111922A95E9F70895089584
:1055100008950C94882A80917903843049F10E947F
:10552000892A80E00E942C051092660288E190E0B2
:1055300020E40FB6F894A895809360000FBE2093E6
:10554000600083B7817F846083BF83B7816083BF3E
:105550007894889583B78E7F83BF0FB6F894A8950B
:1055600080916000886180936000109260000FBE9F
:10557000089508950E94872A0E94A2070E94B92ACE
:1055800080E00E945E0791E0811101C090E0892FC8
:10559000089508950C94C92A0E94551F0E94851CE5
:1055A0000E942C050C94CA2A1F921FB61F92112428
:1055B0008F939F93AF93BF9380916602811113C025
:1055C0008091710390917203A0917303B091740361
:1055D0004196A11DB11D8093710390937203A09316
:1055E0007303B0937403BF91AF919F918F911F90FC
:1055F0001FBE1F90189582E084BD93E095BD9AEF81
:1056000097BD80936E0008952FB7F8948091710331
:1056100090917203A0917303B09174032FBF08950A
:105620002FB7F894609171037091720380917303A6
:10563000909174032FBF08959C014FB7F894809107
:10564000710390917203A0917303B09174034FBFE3
:10565000821B930B089578941F921FB61F921124FA
:105660008F939F93AF93BF93809171039091720337
:10567000A0917303B09174030196A11DB11D809395
:10568000710390937203A0937303B0937403BF915B
:10569000AF919F918F911F901FBE1F90189587E724
:1056A00097E7909301088093000888E19AE00FB68D
:1056B000F894A895809360000FBE90936000FFCF90
:1056C0009093AB018093AA01089580916F02089591
:1056D000CF93DF9300D00F92CDB7DEB790917903CF
:1056E000943011F589837B836A839093E9008FEF6F
:1056F0009091E800815095FD06C095ED9A95F1F7DF
:1057000000008111F5CF8091E80085FF0DC050E0C9
:1057100040E063E070E0CE0101960E94E72D8091A9
:10572000E8008E778093E8000F900F900F90DF9144
:10573000CF910895BC0184E00C94682BBC0183E0F8
:105740000C94682B9C0184E08093E9009FEF80918A
:10575000E800915085FD06C085ED8A95F1F70000BF
:105760009111F5CF8091E80085FF0CC050E040E03A
:1057700066E070E0C9010E94E72D8091E8008E7715
:105780008093E8000895CF93DF93EC0181E080934C
:10579000E9008FEF9091E800815095FD06C095EDEE
:1057A0009A95F1F700008111F5CF8091E80085FF0F
:1057B00014C050E040E068E070E0CE010E94E72DA8
:1057C0008091E8008E778093E80088E0FE01A7E6EC
:1057D000B2E001900D928A95E1F7DF91CF910895A3
:1057E000CF93FC01603221F580917903843001F57B
:1057F000C091E900CF702091EC00922F917020FDB4
:1058000090E8C92B82E08093E9008091E80080FF56
:105810000CC050E040E060E270E0CF010E94E72D54
:105820008091E8008E778093E800CF70C093E90004
:10583000CF91089580917803811109C00E94C62FED
:105840000E9423308091E20084608093E2000895FA
:1058500010927803089508950895089542E061EC48
:1058600081E00E94422F42E261EC84E00E94422FDC
:1058700042E261EC82E00E94422F42E260EC83E06F
:105880000C94422F80917B03833009F461C030F483
:105890008130D1F1823009F49DC008958A3009F435
:1058A00089C08B3009F46FC0893009F050C08091F5
:1058B0007A03813209F04BC080917E0390917F037F
:1058C000009719F0029709F042C08091E800877FA5
:1058D0008093E8008091E80082FF35C09091F3004A
:1058E0008091F200029729F48091F1008B7F813042
:1058F00021F48091F10080936F028091E8008B7712
:105900008093E8000C94762F80917A03813AF9F421
:105910008091E800877F8093E80080917E039091DA
:105920007F03892B61F468E087E692E070E00E94D3
:10593000852E8091E8008B778093E800089560E0E1
:1059400090E080E0F3CF809179038111C3CF089577
:1059500080917A03813AD9F780917E0390917F03F9
:10596000892BA9F78091E800877F8093E8008091D8
:10597000E80080FFFCCF809119018093F1008091B5
:10598000E8008E77BDCF80917A03813201F7809154
:105990007E0390917F03892BD1F68091E800877F69
:1059A0008093E8000E94762F80917C0380931901F8
:1059B0000C94551F80917A03813249F68091E8005A
:1059C000877F8093E8000E94762F80917D038093EB
:1059D0007002089580917A03813A09F0B8CF8091DE
:1059E000E800877F8093E8008091E80080FFFCCF8B
:1059F00080917002C2CFCDB7DEB7A0970FB6F894F2
:105A0000DEBF0FBECDBF84B7877F84BF0FB6F894CB
:105A1000A89580916000886180936000109260007A
:105A20000FBE80E890E00FB6F894809361009093E9
:105A300061000FBE0E940A1D0E94C62F0E942330E3
:105A40008091E20084608093E20078940E94AC32FE
:105A50000E94221D8FE091E00E94801C13E0809143
:105A600079038530B9F00E942C1D80917903843030
:105A7000C1F00E941E1DF3CF0E948B2A80917703F4
:105A8000882341F00E94BA2A882321F00E94D12D58
:105A90000E94551F80917903853071F30E94CC2AB2
:105AA000E2CF1093E9008091E80082FFE2CF80917D
:105AB000E80090E085FF09C050E040E060E270E05F
:105AC000CE0101960E94362E91E08091E8008B77FE
:105AD0008093E800992369F260E2CE0101960E946A
